{
  "_format": "hh-sol-artifact-1",
  "contractName": "Marketplace",
  "sourceName": "src/backend/contracts/Marketplace.sol",
  "abi": [
    {
      "inputs": [
        {
          "internalType": "uint256",
          "name": "_feePercent",
          "type": "uint256"
        }
      ],
      "stateMutability": "nonpayable",
      "type": "constructor"
    },
    {
      "anonymous": false,
      "inputs": [
        {
          "indexed": false,
          "internalType": "uint256",
          "name": "itemId",
          "type": "uint256"
        },
        {
          "indexed": false,
          "internalType": "uint256",
          "name": "startingPrice",
          "type": "uint256"
        },
        {
          "indexed": false,
          "internalType": "uint256",
          "name": "endTime",
          "type": "uint256"
        },
        {
          "indexed": true,
          "internalType": "address",
          "name": "seller",
          "type": "address"
        }
      ],
      "name": "AuctionCreated",
      "type": "event"
    },
    {
      "anonymous": false,
      "inputs": [
        {
          "indexed": false,
          "internalType": "uint256",
          "name": "itemId",
          "type": "uint256"
        },
        {
          "indexed": false,
          "internalType": "uint256",
          "name": "highestBid",
          "type": "uint256"
        },
        {
          "indexed": true,
          "internalType": "address",
          "name": "highestBidder",
          "type": "address"
        }
      ],
      "name": "AuctionEnded",
      "type": "event"
    },
    {
      "anonymous": false,
      "inputs": [
        {
          "indexed": false,
          "internalType": "uint256",
          "name": "itemId",
          "type": "uint256"
        },
        {
          "indexed": false,
          "internalType": "uint256",
          "name": "bidAmount",
          "type": "uint256"
        },
        {
          "indexed": true,
          "internalType": "address",
          "name": "bidder",
          "type": "address"
        }
      ],
      "name": "BidPlaced",
      "type": "event"
    },
    {
      "anonymous": false,
      "inputs": [
        {
          "indexed": false,
          "internalType": "uint256",
          "name": "itemId",
          "type": "uint256"
        },
        {
          "indexed": true,
          "internalType": "address",
          "name": "nft",
          "type": "address"
        },
        {
          "indexed": false,
          "internalType": "uint256",
          "name": "tokenId",
          "type": "uint256"
        },
        {
          "indexed": false,
          "internalType": "uint256",
          "name": "price",
          "type": "uint256"
        },
        {
          "indexed": true,
          "internalType": "address",
          "name": "seller",
          "type": "address"
        },
        {
          "indexed": true,
          "internalType": "address",
          "name": "buyer",
          "type": "address"
        }
      ],
      "name": "Bought",
      "type": "event"
    },
    {
      "anonymous": false,
      "inputs": [
        {
          "indexed": false,
          "internalType": "uint256",
          "name": "itemId",
          "type": "uint256"
        },
        {
          "indexed": true,
          "internalType": "address",
          "name": "nft",
          "type": "address"
        },
        {
          "indexed": false,
          "internalType": "uint256",
          "name": "tokenId",
          "type": "uint256"
        },
        {
          "indexed": false,
          "internalType": "uint256",
          "name": "price",
          "type": "uint256"
        },
        {
          "indexed": true,
          "internalType": "address",
          "name": "seller",
          "type": "address"
        },
        {
          "indexed": true,
          "internalType": "address",
          "name": "owner",
          "type": "address"
        }
      ],
      "name": "Offered",
      "type": "event"
    },
    {
      "anonymous": false,
      "inputs": [
        {
          "indexed": false,
          "internalType": "uint256",
          "name": "tradeId",
          "type": "uint256"
        },
        {
          "indexed": false,
          "internalType": "address",
          "name": "participant",
          "type": "address"
        }
      ],
      "name": "TradeApproved",
      "type": "event"
    },
    {
      "anonymous": false,
      "inputs": [
        {
          "indexed": false,
          "internalType": "uint256",
          "name": "tradeId",
          "type": "uint256"
        },
        {
          "indexed": false,
          "internalType": "uint256",
          "name": "itemId1",
          "type": "uint256"
        },
        {
          "indexed": false,
          "internalType": "uint256",
          "name": "itemId2",
          "type": "uint256"
        },
        {
          "indexed": false,
          "internalType": "address",
          "name": "participant1",
          "type": "address"
        },
        {
          "indexed": false,
          "internalType": "address",
          "name": "participant2",
          "type": "address"
        }
      ],
      "name": "TradeCompleted",
      "type": "event"
    },
    {
      "anonymous": false,
      "inputs": [
        {
          "indexed": false,
          "internalType": "uint256",
          "name": "tradeId",
          "type": "uint256"
        },
        {
          "indexed": false,
          "internalType": "uint256",
          "name": "itemId",
          "type": "uint256"
        },
        {
          "indexed": false,
          "internalType": "address",
          "name": "owner",
          "type": "address"
        }
      ],
      "name": "TradeCreated",
      "type": "event"
    },
    {
      "anonymous": false,
      "inputs": [
        {
          "indexed": false,
          "internalType": "uint256",
          "name": "tradeId",
          "type": "uint256"
        },
        {
          "indexed": false,
          "internalType": "uint256",
          "name": "itemId1",
          "type": "uint256"
        },
        {
          "indexed": false,
          "internalType": "uint256",
          "name": "itemId2",
          "type": "uint256"
        },
        {
          "indexed": false,
          "internalType": "address",
          "name": "participant1",
          "type": "address"
        },
        {
          "indexed": false,
          "internalType": "address",
          "name": "participant2",
          "type": "address"
        }
      ],
      "name": "TradeProposed",
      "type": "event"
    },
    {
      "inputs": [
        {
          "internalType": "uint256",
          "name": "_tradeId",
          "type": "uint256"
        }
      ],
      "name": "approveTrade",
      "outputs": [],
      "stateMutability": "nonpayable",
      "type": "function"
    },
    {
      "inputs": [
        {
          "internalType": "uint256",
          "name": "",
          "type": "uint256"
        }
      ],
      "name": "auctions",
      "outputs": [
        {
          "internalType": "uint256",
          "name": "itemId",
          "type": "uint256"
        },
        {
          "internalType": "uint256",
          "name": "startingPrice",
          "type": "uint256"
        },
        {
          "internalType": "uint256",
          "name": "highestBid",
          "type": "uint256"
        },
        {
          "internalType": "address payable",
          "name": "highestBidder",
          "type": "address"
        },
        {
          "internalType": "uint256",
          "name": "endTime",
          "type": "uint256"
        },
        {
          "internalType": "bool",
          "name": "ended",
          "type": "bool"
        },
        {
          "internalType": "address payable",
          "name": "seller",
          "type": "address"
        }
      ],
      "stateMutability": "view",
      "type": "function"
    },
    {
      "inputs": [
        {
          "internalType": "uint256",
          "name": "_itemId",
          "type": "uint256"
        }
      ],
      "name": "bid",
      "outputs": [],
      "stateMutability": "payable",
      "type": "function"
    },
    {
      "inputs": [
        {
          "internalType": "uint256",
          "name": "_itemId",
          "type": "uint256"
        },
        {
          "internalType": "uint256",
          "name": "_startingPrice",
          "type": "uint256"
        },
        {
          "internalType": "uint256",
          "name": "_duration",
          "type": "uint256"
        }
      ],
      "name": "createAuction",
      "outputs": [],
      "stateMutability": "nonpayable",
      "type": "function"
    },
    {
      "inputs": [
        {
          "internalType": "uint256",
          "name": "_itemId",
          "type": "uint256"
        }
      ],
      "name": "createTrade",
      "outputs": [],
      "stateMutability": "nonpayable",
      "type": "function"
    },
    {
      "inputs": [
        {
          "internalType": "uint256",
          "name": "_itemId",
          "type": "uint256"
        }
      ],
      "name": "endAuction",
      "outputs": [],
      "stateMutability": "payable",
      "type": "function"
    },
    {
      "inputs": [],
      "name": "feeAccount",
      "outputs": [
        {
          "internalType": "address payable",
          "name": "",
          "type": "address"
        }
      ],
      "stateMutability": "view",
      "type": "function"
    },
    {
      "inputs": [],
      "name": "feePercent",
      "outputs": [
        {
          "internalType": "uint256",
          "name": "",
          "type": "uint256"
        }
      ],
      "stateMutability": "view",
      "type": "function"
    },
    {
      "inputs": [
        {
          "internalType": "uint256",
          "name": "_itemId",
          "type": "uint256"
        }
      ],
      "name": "getTotalPrice",
      "outputs": [
        {
          "internalType": "uint256",
          "name": "",
          "type": "uint256"
        }
      ],
      "stateMutability": "view",
      "type": "function"
    },
    {
      "inputs": [],
      "name": "itemCount",
      "outputs": [
        {
          "internalType": "uint256",
          "name": "",
          "type": "uint256"
        }
      ],
      "stateMutability": "view",
      "type": "function"
    },
    {
      "inputs": [
        {
          "internalType": "uint256",
          "name": "",
          "type": "uint256"
        }
      ],
      "name": "items",
      "outputs": [
        {
          "internalType": "uint256",
          "name": "itemId",
          "type": "uint256"
        },
        {
          "internalType": "contract IERC721",
          "name": "nft",
          "type": "address"
        },
        {
          "internalType": "uint256",
          "name": "tokenId",
          "type": "uint256"
        },
        {
          "internalType": "uint256",
          "name": "price",
          "type": "uint256"
        },
        {
          "internalType": "address payable",
          "name": "seller",
          "type": "address"
        },
        {
          "internalType": "address",
          "name": "owner",
          "type": "address"
        },
        {
          "internalType": "bool",
          "name": "listedForSale",
          "type": "bool"
        },
        {
          "internalType": "bool",
          "name": "listedForAuction",
          "type": "bool"
        },
        {
          "internalType": "bool",
          "name": "listedForTrade",
          "type": "bool"
        }
      ],
      "stateMutability": "view",
      "type": "function"
    },
    {
      "inputs": [
        {
          "internalType": "uint256",
          "name": "_itemId",
          "type": "uint256"
        },
        {
          "internalType": "uint256",
          "name": "_newPrice",
          "type": "uint256"
        }
      ],
      "name": "listItem",
      "outputs": [],
      "stateMutability": "nonpayable",
      "type": "function"
    },
    {
      "inputs": [
        {
          "internalType": "contract IERC721",
          "name": "_nft",
          "type": "address"
        },
        {
          "internalType": "uint256",
          "name": "_tokenId",
          "type": "uint256"
        },
        {
          "internalType": "uint256",
          "name": "_price",
          "type": "uint256"
        }
      ],
      "name": "makeItem",
      "outputs": [],
      "stateMutability": "nonpayable",
      "type": "function"
    },
    {
      "inputs": [
        {
          "internalType": "uint256",
          "name": "_itemId1",
          "type": "uint256"
        },
        {
          "internalType": "uint256",
          "name": "_itemId2",
          "type": "uint256"
        }
      ],
      "name": "proposeTrade",
      "outputs": [],
      "stateMutability": "nonpayable",
      "type": "function"
    },
    {
      "inputs": [
        {
          "internalType": "uint256",
          "name": "_itemId",
          "type": "uint256"
        }
      ],
      "name": "purchaseItem",
      "outputs": [],
      "stateMutability": "payable",
      "type": "function"
    },
    {
      "inputs": [],
      "name": "tradeCount",
      "outputs": [
        {
          "internalType": "uint256",
          "name": "",
          "type": "uint256"
        }
      ],
      "stateMutability": "view",
      "type": "function"
    },
    {
      "inputs": [
        {
          "internalType": "uint256",
          "name": "",
          "type": "uint256"
        }
      ],
      "name": "trades",
      "outputs": [
        {
          "internalType": "uint256",
          "name": "tradeId",
          "type": "uint256"
        },
        {
          "internalType": "uint256",
          "name": "itemId1",
          "type": "uint256"
        },
        {
          "internalType": "uint256",
          "name": "itemId2",
          "type": "uint256"
        },
        {
          "internalType": "address",
          "name": "participant1",
          "type": "address"
        },
        {
          "internalType": "address",
          "name": "participant2",
          "type": "address"
        }
      ],
      "stateMutability": "view",
      "type": "function"
    }
  ],
  "bytecode": "0x60c06040523480156200001157600080fd5b50604051620047b0380380620047b083398181016040528101906200003791906200009c565b60016000819055503373ffffffffffffffffffffffffffffffffffffffff1660808173ffffffffffffffffffffffffffffffffffffffff1660601b815250508060a0818152505050620000ec565b6000815190506200009681620000d2565b92915050565b600060208284031215620000af57600080fd5b6000620000bf8482850162000085565b91505092915050565b6000819050919050565b620000dd81620000c8565b8114620000e957600080fd5b50565b60805160601c60a05161468d6200012360003960008181610938015261176701526000818161090e01526123b5015261468d6000f3fe6080604052600436106100fe5760003560e01c8063abe4d12211610095578063ca7dd37511610064578063ca7dd3751461032b578063cbeb9b9b14610368578063cda4beef14610391578063d38ea5bf146103ba578063fa00afc7146103d6576100fe565b8063abe4d12214610276578063b9a2de3a1461029f578063bd55022a146102bb578063bfb231d2146102e6576100fe565b806365e17c9d116100d157806365e17c9d146101cc5780636bfb0d01146101f75780637fd6f15c14610222578063883efa671461024d576100fe565b806301663e59146101035780631e6c598e1461012c578063454a2ab31461016d578063571a26a014610189575b600080fd5b34801561010f57600080fd5b5061012a6004803603810190610125919061301f565b6103ff565b005b34801561013857600080fd5b50610153600480360381019061014e919061301f565b61058b565b604051610164959493929190613bee565b60405180910390f35b6101876004803603810190610182919061301f565b610601565b005b34801561019557600080fd5b506101b060048036038101906101ab919061301f565b61087d565b6040516101c39796959493929190613b7f565b60405180910390f35b3480156101d857600080fd5b506101e161090c565b6040516101ee9190613623565b60405180910390f35b34801561020357600080fd5b5061020c610930565b6040516102199190613a4e565b60405180910390f35b34801561022e57600080fd5b50610237610936565b6040516102449190613a4e565b60405180910390f35b34801561025957600080fd5b50610274600480360381019061026f9190613048565b61095a565b005b34801561028257600080fd5b5061029d6004803603810190610298919061301f565b610dd3565b005b6102b960048036038101906102b4919061301f565b611080565b005b3480156102c757600080fd5b506102d0611686565b6040516102dd9190613a4e565b60405180910390f35b3480156102f257600080fd5b5061030d6004803603810190610308919061301f565b61168c565b60405161032299989796959493929190613a92565b60405180910390f35b34801561033757600080fd5b50610352600480360381019061034d919061301f565b611761565b60405161035f9190613a4e565b60405180910390f35b34801561037457600080fd5b5061038f600480360381019061038a9190613048565b6117c4565b005b34801561039d57600080fd5b506103b860048036038101906103b39190613084565b611c81565b005b6103d460048036038101906103cf919061301f565b61215a565b005b3480156103e257600080fd5b506103fd60048036038101906103f89190612fd0565b612637565b005b60026000541415610445576040517f08c379a000000000000000000000000000000000000000000000000000000000815260040161043c906139ce565b60405180910390fd5b6002600081905550600060056000838152602001908152602001600020905060008160000154116104ab576040517f08c379a00000000000000000000000000000000000000000000000000000000081526004016104a29061396e565b60405180910390fd5b8060030160009054906101000a900473ffffffffffffffffffffffffffffffffffffffff1673ffffffffffffffffffffffffffffffffffffffff163373ffffffffffffffffffffffffffffffffffffffff161461053d576040517f08c379a0000000000000000000000000000000000000000000000000000000008152600401610534906136ce565b60405180910390fd5b7f642ea0b1d63cc70f38e39719b589ae0a9a111ef74ae825093d1574009bdf4e29823360405161056e929190613a69565b60405180910390a161057f82612969565b50600160008190555050565b60056020528060005260406000206000915090508060000154908060010154908060020154908060030160009054906101000a900473ffffffffffffffffffffffffffffffffffffffff16908060040160009054906101000a900473ffffffffffffffffffffffffffffffffffffffff16905085565b60026000541415610647576040517f08c379a000000000000000000000000000000000000000000000000000000000815260040161063e906139ce565b60405180910390fd5b60026000819055506000600460008381526020019081526020016000209050806004015442106106ac576040517f08c379a00000000000000000000000000000000000000000000000000000000081526004016106a39061378e565b60405180910390fd5b806001015434116106f2576040517f08c379a00000000000000000000000000000000000000000000000000000000081526004016106e9906138ce565b60405180910390fd5b6000816002015411156107d55760008160030160009054906101000a900473ffffffffffffffffffffffffffffffffffffffff1673ffffffffffffffffffffffffffffffffffffffff16826002015460405161074d9061360e565b60006040518083038185875af1925050503d806000811461078a576040519150601f19603f3d011682016040523d82523d6000602084013e61078f565b606091505b50509050806107d3576040517f08c379a00000000000000000000000000000000000000000000000000000000081526004016107ca906137ee565b60405180910390fd5b505b3373ffffffffffffffffffffffffffffffffffffffff167fbfbf2db1f7880e9487cbceeb181c4dce363d0ad1b6e73f5aa494ffb5d9191496833460405161081d929190613b1f565b60405180910390a2348160020181905550338160030160006101000a81548173ffffffffffffffffffffffffffffffffffffffff021916908373ffffffffffffffffffffffffffffffffffffffff16021790555050600160008190555050565b60046020528060005260406000206000915090508060000154908060010154908060020154908060030160009054906101000a900473ffffffffffffffffffffffffffffffffffffffff16908060040154908060050160009054906101000a900460ff16908060050160019054906101000a900473ffffffffffffffffffffffffffffffffffffffff16905087565b7f000000000000000000000000000000000000000000000000000000000000000081565b60015481565b7f000000000000000000000000000000000000000000000000000000000000000081565b600260005414156109a0576040517f08c379a0000000000000000000000000000000000000000000000000000000008152600401610997906139ce565b60405180910390fd5b600260008190555060006003600084815260200190815260200160002090506000831180156109d157506001548311155b610a10576040517f08c379a0000000000000000000000000000000000000000000000000000000008152600401610a079061386e565b60405180910390fd5b8060050160009054906101000a900473ffffffffffffffffffffffffffffffffffffffff1673ffffffffffffffffffffffffffffffffffffffff163373ffffffffffffffffffffffffffffffffffffffff1614610aa2576040517f08c379a0000000000000000000000000000000000000000000000000000000008152600401610a99906136ee565b60405180910390fd5b60008211610ae5576040517f08c379a0000000000000000000000000000000000000000000000000000000008152600401610adc9061370e565b60405180910390fd5b8060050160169054906101000a900460ff1615610b37576040517f08c379a0000000000000000000000000000000000000000000000000000000008152600401610b2e9061388e565b60405180910390fd5b8060050160159054906101000a900460ff1615610b89576040517f08c379a0000000000000000000000000000000000000000000000000000000008152600401610b809061382e565b60405180910390fd5b8060050160149054906101000a900460ff1615610bdb576040517f08c379a0000000000000000000000000000000000000000000000000000000008152600401610bd2906138ae565b60405180910390fd5b8060010160009054906101000a900473ffffffffffffffffffffffffffffffffffffffff1673ffffffffffffffffffffffffffffffffffffffff166323b872dd333084600201546040518463ffffffff1660e01b8152600401610c4093929190613675565b600060405180830381600087803b158015610c5a57600080fd5b505af1158015610c6e573d6000803e3d6000fd5b50505050818160030181905550338160040160006101000a81548173ffffffffffffffffffffffffffffffffffffffff021916908373ffffffffffffffffffffffffffffffffffffffff16021790555060018160050160146101000a81548160ff021916908315150217905550338160050160006101000a81548173ffffffffffffffffffffffffffffffffffffffff021916908373ffffffffffffffffffffffffffffffffffffffff1602179055503373ffffffffffffffffffffffffffffffffffffffff163373ffffffffffffffffffffffffffffffffffffffff168260010160009054906101000a900473ffffffffffffffffffffffffffffffffffffffff1673ffffffffffffffffffffffffffffffffffffffff167fe4ef384ea82c018889dc208d54c1dfda9f0e81eaec76e042966cb59d46fd8d2986856002015487604051610dbe93929190613b48565b60405180910390a45060016000819055505050565b60026000541415610e19576040517f08c379a0000000000000000000000000000000000000000000000000000000008152600401610e10906139ce565b60405180910390fd5b600260008190555060006003600083815260200190815260200160002090503373ffffffffffffffffffffffffffffffffffffffff168160050160009054906101000a900473ffffffffffffffffffffffffffffffffffffffff1673ffffffffffffffffffffffffffffffffffffffff1614610eca576040517f08c379a0000000000000000000000000000000000000000000000000000000008152600401610ec19061374e565b60405180910390fd5b8060050160169054906101000a900460ff1615610f1c576040517f08c379a0000000000000000000000000000000000000000000000000000000008152600401610f13906139ee565b60405180910390fd5b8060050160159054906101000a900460ff1615610f6e576040517f08c379a0000000000000000000000000000000000000000000000000000000008152600401610f659061382e565b60405180910390fd5b8060050160149054906101000a900460ff1615610fc0576040517f08c379a0000000000000000000000000000000000000000000000000000000008152600401610fb7906138ee565b60405180910390fd5b60018160050160166101000a81548160ff0219169083151502179055508060010160009054906101000a900473ffffffffffffffffffffffffffffffffffffffff1673ffffffffffffffffffffffffffffffffffffffff166323b872dd333084600201546040518463ffffffff1660e01b815260040161104293929190613675565b600060405180830381600087803b15801561105c57600080fd5b505af1158015611070573d6000803e3d6000fd5b5050505050600160008190555050565b600260005414156110c6576040517f08c379a00000000000000000000000000000000000000000000000000000000081526004016110bd906139ce565b60405180910390fd5b6002600081905550600060046000838152602001908152602001600020905060006003600084815260200190815260200160002090508160040154421015611143576040517f08c379a000000000000000000000000000000000000000000000000000000000815260040161113a9061390e565b60405180910390fd5b8160050160009054906101000a900460ff1615611195576040517f08c379a000000000000000000000000000000000000000000000000000000000815260040161118c9061380e565b60405180910390fd5b60018260050160006101000a81548160ff0219169083151502179055506000826002015411156115bd5781600201544710156111d047612df9565b6111dd8460020154612df9565b6040516020016111ee9291906135d4565b6040516020818303038152906040529061123e576040517f08c379a000000000000000000000000000000000000000000000000000000000815260040161123591906136ac565b60405180910390fd5b508160050160019054906101000a900473ffffffffffffffffffffffffffffffffffffffff1673ffffffffffffffffffffffffffffffffffffffff166108fc83600201549081150290604051600060405180830381858888f193505050501580156112ad573d6000803e3d6000fd5b50600073ffffffffffffffffffffffffffffffffffffffff168260030160009054906101000a900473ffffffffffffffffffffffffffffffffffffffff1673ffffffffffffffffffffffffffffffffffffffff1614611484578060010160009054906101000a900473ffffffffffffffffffffffffffffffffffffffff1673ffffffffffffffffffffffffffffffffffffffff166323b872dd308460030160009054906101000a900473ffffffffffffffffffffffffffffffffffffffff1684600201546040518463ffffffff1660e01b815260040161138f9392919061363e565b600060405180830381600087803b1580156113a957600080fd5b505af11580156113bd573d6000803e3d6000fd5b5050505060008160050160146101000a81548160ff02191690831515021790555060008160050160156101000a81548160ff02191690831515021790555060008160050160166101000a81548160ff0219169083151502179055508160030160009054906101000a900473ffffffffffffffffffffffffffffffffffffffff168160050160006101000a81548173ffffffffffffffffffffffffffffffffffffffff021916908373ffffffffffffffffffffffffffffffffffffffff160217905550611540565b8060010160009054906101000a900473ffffffffffffffffffffffffffffffffffffffff1673ffffffffffffffffffffffffffffffffffffffff166323b872dd308460050160019054906101000a900473ffffffffffffffffffffffffffffffffffffffff1684600201546040518463ffffffff1660e01b815260040161150d9392919061363e565b600060405180830381600087803b15801561152757600080fd5b505af115801561153b573d6000803e3d6000fd5b505050505b8160030160009054906101000a900473ffffffffffffffffffffffffffffffffffffffff1673ffffffffffffffffffffffffffffffffffffffff167fbafc4bda865d4d1f8d5b16f883e996fde0fe71112fac81503876d353756944008484600201546040516115b0929190613b1f565b60405180910390a2611679565b8060010160009054906101000a900473ffffffffffffffffffffffffffffffffffffffff1673ffffffffffffffffffffffffffffffffffffffff166323b872dd308460050160019054906101000a900473ffffffffffffffffffffffffffffffffffffffff1684600201546040518463ffffffff1660e01b81526004016116469392919061363e565b600060405180830381600087803b15801561166057600080fd5b505af1158015611674573d6000803e3d6000fd5b505050505b5050600160008190555050565b60025481565b60036020528060005260406000206000915090508060000154908060010160009054906101000a900473ffffffffffffffffffffffffffffffffffffffff16908060020154908060030154908060040160009054906101000a900473ffffffffffffffffffffffffffffffffffffffff16908060050160009054906101000a900473ffffffffffffffffffffffffffffffffffffffff16908060050160149054906101000a900460ff16908060050160159054906101000a900460ff16908060050160169054906101000a900460ff16905089565b600060647f000000000000000000000000000000000000000000000000000000000000000060646117929190613c73565b60036000858152602001908152602001600020600301546117b39190613cfa565b6117bd9190613cc9565b9050919050565b6002600054141561180a576040517f08c379a0000000000000000000000000000000000000000000000000000000008152600401611801906139ce565b60405180910390fd5b6002600081905550600060036000848152602001908152602001600020905060006003600084815260200190815260200160002090503373ffffffffffffffffffffffffffffffffffffffff168160050160009054906101000a900473ffffffffffffffffffffffffffffffffffffffff1673ffffffffffffffffffffffffffffffffffffffff16146118d2576040517f08c379a00000000000000000000000000000000000000000000000000000000081526004016118c99061374e565b60405180910390fd5b8060050160009054906101000a900473ffffffffffffffffffffffffffffffffffffffff1673ffffffffffffffffffffffffffffffffffffffff168260050160009054906101000a900473ffffffffffffffffffffffffffffffffffffffff1673ffffffffffffffffffffffffffffffffffffffff161415611989576040517f08c379a000000000000000000000000000000000000000000000000000000000815260040161198090613a0e565b60405180910390fd5b8160050160169054906101000a900460ff166119da576040517f08c379a00000000000000000000000000000000000000000000000000000000081526004016119d19061392e565b60405180910390fd5b600260008154809291906119ed90613e81565b91905055506040518060a0016040528060025481526020018581526020018481526020018360050160009054906101000a900473ffffffffffffffffffffffffffffffffffffffff1673ffffffffffffffffffffffffffffffffffffffff1681526020018260050160009054906101000a900473ffffffffffffffffffffffffffffffffffffffff1673ffffffffffffffffffffffffffffffffffffffff1681525060056000600254815260200190815260200160002060008201518160000155602082015181600101556040820151816002015560608201518160030160006101000a81548173ffffffffffffffffffffffffffffffffffffffff021916908373ffffffffffffffffffffffffffffffffffffffff16021790555060808201518160040160006101000a81548173ffffffffffffffffffffffffffffffffffffffff021916908373ffffffffffffffffffffffffffffffffffffffff1602179055509050508060010160009054906101000a900473ffffffffffffffffffffffffffffffffffffffff1673ffffffffffffffffffffffffffffffffffffffff166323b872dd333084600201546040518463ffffffff1660e01b8152600401611bb893929190613675565b600060405180830381600087803b158015611bd257600080fd5b505af1158015611be6573d6000803e3d6000fd5b505050507f4e159664e78f45643c1c9a11403b435b65662a5941f60a7e8aad4d047864020560025485858560050160009054906101000a900473ffffffffffffffffffffffffffffffffffffffff168560050160009054906101000a900473ffffffffffffffffffffffffffffffffffffffff16604051611c6b959493929190613bee565b60405180910390a1505060016000819055505050565b60026000541415611cc7576040517f08c379a0000000000000000000000000000000000000000000000000000000008152600401611cbe906139ce565b60405180910390fd5b60026000819055506000600360008581526020019081526020016000209050600084118015611cf857506001548411155b611d37576040517f08c379a0000000000000000000000000000000000000000000000000000000008152600401611d2e906137ae565b60405180910390fd5b8060050160009054906101000a900473ffffffffffffffffffffffffffffffffffffffff1673ffffffffffffffffffffffffffffffffffffffff163373ffffffffffffffffffffffffffffffffffffffff1614611dc9576040517f08c379a0000000000000000000000000000000000000000000000000000000008152600401611dc09061372e565b60405180910390fd5b8060050160159054906101000a900460ff1615611e1b576040517f08c379a0000000000000000000000000000000000000000000000000000000008152600401611e129061376e565b60405180910390fd5b8060050160149054906101000a900460ff1615611e6d576040517f08c379a0000000000000000000000000000000000000000000000000000000008152600401611e64906139ae565b60405180910390fd5b8060050160169054906101000a900460ff1615611ebf576040517f08c379a0000000000000000000000000000000000000000000000000000000008152600401611eb6906137ce565b60405180910390fd5b60008311611f02576040517f08c379a0000000000000000000000000000000000000000000000000000000008152600401611ef990613a2e565b60405180910390fd5b8060010160009054906101000a900473ffffffffffffffffffffffffffffffffffffffff1673ffffffffffffffffffffffffffffffffffffffff166323b872dd333084600201546040518463ffffffff1660e01b8152600401611f6793929190613675565b600060405180830381600087803b158015611f8157600080fd5b505af1158015611f95573d6000803e3d6000fd5b5050505060008242611fa79190613c73565b90506040518060e0016040528086815260200185815260200160008152602001600073ffffffffffffffffffffffffffffffffffffffff1681526020018281526020016000151581526020013373ffffffffffffffffffffffffffffffffffffffff168152506004600087815260200190815260200160002060008201518160000155602082015181600101556040820151816002015560608201518160030160006101000a81548173ffffffffffffffffffffffffffffffffffffffff021916908373ffffffffffffffffffffffffffffffffffffffff1602179055506080820151816004015560a08201518160050160006101000a81548160ff02191690831515021790555060c08201518160050160016101000a81548173ffffffffffffffffffffffffffffffffffffffff021916908373ffffffffffffffffffffffffffffffffffffffff1602179055509050503373ffffffffffffffffffffffffffffffffffffffff167f31601d099683117d912ba8d2e0a9265379e3e1325353b6effa37c6ef86a9cb0386868460405161214393929190613b48565b60405180910390a250506001600081905550505050565b600260005414156121a0576040517f08c379a0000000000000000000000000000000000000000000000000000000008152600401612197906139ce565b60405180910390fd5b600260008190555060006121b382611761565b905060006003600084815260200190815260200160002090506000831180156121de57506001548311155b61221d576040517f08c379a00000000000000000000000000000000000000000000000000000000081526004016122149061386e565b60405180910390fd5b81341015612260576040517f08c379a00000000000000000000000000000000000000000000000000000000081526004016122579061384e565b60405180910390fd5b8060050160149054906101000a900460ff166122b1576040517f08c379a00000000000000000000000000000000000000000000000000000000081526004016122a89061394e565b60405180910390fd5b3373ffffffffffffffffffffffffffffffffffffffff168160050160009054906101000a900473ffffffffffffffffffffffffffffffffffffffff1673ffffffffffffffffffffffffffffffffffffffff161415612344576040517f08c379a000000000000000000000000000000000000000000000000000000000815260040161233b9061398e565b60405180910390fd5b8060040160009054906101000a900473ffffffffffffffffffffffffffffffffffffffff1673ffffffffffffffffffffffffffffffffffffffff166108fc82600301549081150290604051600060405180830381858888f193505050501580156123b2573d6000803e3d6000fd5b507f000000000000000000000000000000000000000000000000000000000000000073ffffffffffffffffffffffffffffffffffffffff166108fc8260030154846123fd9190613d54565b9081150290604051600060405180830381858888f19350505050158015612428573d6000803e3d6000fd5b5060008160050160146101000a81548160ff02191690831515021790555060008160050160156101000a81548160ff02191690831515021790555060008160050160166101000a81548160ff021916908315150217905550338160050160006101000a81548173ffffffffffffffffffffffffffffffffffffffff021916908373ffffffffffffffffffffffffffffffffffffffff1602179055508060010160009054906101000a900473ffffffffffffffffffffffffffffffffffffffff1673ffffffffffffffffffffffffffffffffffffffff166323b872dd303384600201546040518463ffffffff1660e01b815260040161252893929190613675565b600060405180830381600087803b15801561254257600080fd5b505af1158015612556573d6000803e3d6000fd5b505050503373ffffffffffffffffffffffffffffffffffffffff168160040160009054906101000a900473ffffffffffffffffffffffffffffffffffffffff1673ffffffffffffffffffffffffffffffffffffffff168260010160009054906101000a900473ffffffffffffffffffffffffffffffffffffffff1673ffffffffffffffffffffffffffffffffffffffff167f8b4c9c8a607d67b321582dd8461041b1dc2ceeca70c8b7f37f8e02095cf2e76d868560020154866003015460405161262293929190613b48565b60405180910390a45050600160008190555050565b6002600054141561267d576040517f08c379a0000000000000000000000000000000000000000000000000000000008152600401612674906139ce565b60405180910390fd5b6002600081905550600081116126c8576040517f08c379a00000000000000000000000000000000000000000000000000000000081526004016126bf9061370e565b60405180910390fd5b600160008154809291906126db90613e81565b919050555060405180610120016040528060015481526020018473ffffffffffffffffffffffffffffffffffffffff168152602001838152602001828152602001600073ffffffffffffffffffffffffffffffffffffffff1681526020013373ffffffffffffffffffffffffffffffffffffffff168152602001600015158152602001600015158152602001600015158152506003600060015481526020019081526020016000206000820151816000015560208201518160010160006101000a81548173ffffffffffffffffffffffffffffffffffffffff021916908373ffffffffffffffffffffffffffffffffffffffff160217905550604082015181600201556060820151816003015560808201518160040160006101000a81548173ffffffffffffffffffffffffffffffffffffffff021916908373ffffffffffffffffffffffffffffffffffffffff16021790555060a08201518160050160006101000a81548173ffffffffffffffffffffffffffffffffffffffff021916908373ffffffffffffffffffffffffffffffffffffffff16021790555060c08201518160050160146101000a81548160ff02191690831515021790555060e08201518160050160156101000a81548160ff0219169083151502179055506101008201518160050160166101000a81548160ff0219169083151502179055509050503373ffffffffffffffffffffffffffffffffffffffff163373ffffffffffffffffffffffffffffffffffffffff168473ffffffffffffffffffffffffffffffffffffffff167fe4ef384ea82c018889dc208d54c1dfda9f0e81eaec76e042966cb59d46fd8d29600154868660405161295493929190613b48565b60405180910390a46001600081905550505050565b600060056000838152602001908152602001600020905060006003600083600101548152602001908152602001600020905060006003600084600201548152602001908152602001600020905060008260050160009054906101000a900473ffffffffffffffffffffffffffffffffffffffff1690508160050160009054906101000a900473ffffffffffffffffffffffffffffffffffffffff168360050160006101000a81548173ffffffffffffffffffffffffffffffffffffffff021916908373ffffffffffffffffffffffffffffffffffffffff160217905550808260050160006101000a81548173ffffffffffffffffffffffffffffffffffffffff021916908373ffffffffffffffffffffffffffffffffffffffff1602179055508260010160009054906101000a900473ffffffffffffffffffffffffffffffffffffffff1673ffffffffffffffffffffffffffffffffffffffff166323b872dd308560050160009054906101000a900473ffffffffffffffffffffffffffffffffffffffff1686600201546040518463ffffffff1660e01b8152600401612b1293929190613675565b600060405180830381600087803b158015612b2c57600080fd5b505af1158015612b40573d6000803e3d6000fd5b505050508160010160009054906101000a900473ffffffffffffffffffffffffffffffffffffffff1673ffffffffffffffffffffffffffffffffffffffff166323b872dd308460050160009054906101000a900473ffffffffffffffffffffffffffffffffffffffff1685600201546040518463ffffffff1660e01b8152600401612bcd93929190613675565b600060405180830381600087803b158015612be757600080fd5b505af1158015612bfb573d6000803e3d6000fd5b5050505060018360050160146101000a81548160ff02191690831515021790555060018260050160146101000a81548160ff0219169083151502179055507fb3eab9b33fc1685c35f588131441eb34e4ecf693d86667f6c91c0f57e4bf41bd85856001015486600201548760030160009054906101000a900473ffffffffffffffffffffffffffffffffffffffff168860040160009054906101000a900473ffffffffffffffffffffffffffffffffffffffff16604051612cc0959493929190613bee565b60405180910390a160008360050160146101000a81548160ff02191690831515021790555060008360050160156101000a81548160ff02191690831515021790555060008360050160166101000a81548160ff02191690831515021790555060008260050160146101000a81548160ff02191690831515021790555060008260050160156101000a81548160ff02191690831515021790555060008260050160166101000a81548160ff02191690831515021790555060056000868152602001908152602001600020600080820160009055600182016000905560028201600090556003820160006101000a81549073ffffffffffffffffffffffffffffffffffffffff02191690556004820160006101000a81549073ffffffffffffffffffffffffffffffffffffffff021916905550505050505050565b60606000821415612e41576040518060400160405280600181526020017f30000000000000000000000000000000000000000000000000000000000000008152509050612fa1565b600082905060005b60008214612e73578080612e5c90613e81565b915050600a82612e6c9190613cc9565b9150612e49565b60008167ffffffffffffffff811115612eb5577f4e487b7100000000000000000000000000000000000000000000000000000000600052604160045260246000fd5b6040519080825280601f01601f191660200182016040528015612ee75781602001600182028036833780820191505090505b5090505b60008514612f9a57600182612f009190613d54565b9150600a85612f0f9190613eca565b6030612f1b9190613c73565b60f81b818381518110612f57577f4e487b7100000000000000000000000000000000000000000000000000000000600052603260045260246000fd5b60200101907effffffffffffffffffffffffffffffffffffffffffffffffffffffffffffff1916908160001a905350600a85612f939190613cc9565b9450612eeb565b8093505050505b919050565b600081359050612fb581614629565b92915050565b600081359050612fca81614640565b92915050565b600080600060608486031215612fe557600080fd5b6000612ff386828701612fa6565b935050602061300486828701612fbb565b925050604061301586828701612fbb565b9150509250925092565b60006020828403121561303157600080fd5b600061303f84828501612fbb565b91505092915050565b6000806040838503121561305b57600080fd5b600061306985828601612fbb565b925050602061307a85828601612fbb565b9150509250929050565b60008060006060848603121561309957600080fd5b60006130a786828701612fbb565b93505060206130b886828701612fbb565b92505060406130c986828701612fbb565b9150509250925092565b6130dc81613df4565b82525050565b6130eb81613d9a565b82525050565b6130fa81613d88565b82525050565b61310981613dac565b82525050565b61311881613e06565b82525050565b600061312982613c41565b6131338185613c57565b9350613143818560208601613e4e565b61314c81613f59565b840191505092915050565b600061316282613c41565b61316c8185613c68565b935061317c818560208601613e4e565b80840191505092915050565b6000613195600983613c68565b91506131a082613f6a565b600982019050919050565b60006131b8601e83613c68565b91506131c382613f93565b601e82019050919050565b60006131db602383613c57565b91506131e682613fbc565b604082019050919050565b60006131fe602a83613c57565b91506132098261400b565b604082019050919050565b6000613221601f83613c57565b915061322c8261405a565b602082019050919050565b6000613244602483613c57565b915061324f82614083565b604082019050919050565b6000613267602883613c57565b9150613272826140d2565b604082019050919050565b600061328a601f83613c57565b915061329582614121565b602082019050919050565b60006132ad600d83613c57565b91506132b88261414a565b602082019050919050565b60006132d0601283613c57565b91506132db82614173565b602082019050919050565b60006132f3601d83613c57565b91506132fe8261419c565b602082019050919050565b6000613316602883613c57565b9150613321826141c5565b604082019050919050565b6000613339601583613c57565b915061334482614214565b602082019050919050565b600061335c602383613c57565b91506133678261423d565b604082019050919050565b600061337f603383613c57565b915061338a8261428c565b604082019050919050565b60006133a2601283613c57565b91506133ad826142db565b602082019050919050565b60006133c5602183613c57565b91506133d082614304565b604082019050919050565b60006133e8602883613c57565b91506133f382614353565b604082019050919050565b600061340b602b83613c57565b9150613416826143a2565b604082019050919050565b600061342e602083613c57565b9150613439826143f1565b602082019050919050565b6000613451601583613c57565b915061345c8261441a565b602082019050919050565b6000613474602083613c57565b915061347f82614443565b602082019050919050565b6000613497600083613c4c565b91506134a28261446c565b600082019050919050565b60006134ba601983613c57565b91506134c58261446f565b602082019050919050565b60006134dd601483613c57565b91506134e882614498565b602082019050919050565b6000613500601e83613c57565b915061350b826144c1565b602082019050919050565b6000613523601c83613c57565b915061352e826144ea565b602082019050919050565b6000613546601f83613c57565b915061355182614513565b602082019050919050565b6000613569602983613c57565b91506135748261453c565b604082019050919050565b600061358c603883613c57565b91506135978261458b565b604082019050919050565b60006135af602883613c57565b91506135ba826145da565b604082019050919050565b6135ce81613dea565b82525050565b60006135df826131ab565b91506135eb8285613157565b91506135f682613188565b91506136028284613157565b91508190509392505050565b60006136198261348a565b9150819050919050565b600060208201905061363860008301846130e2565b92915050565b600060608201905061365360008301866130f1565b61366060208301856130d3565b61366d60408301846135c5565b949350505050565b600060608201905061368a60008301866130f1565b61369760208301856130f1565b6136a460408301846135c5565b949350505050565b600060208201905081810360008301526136c6818461311e565b905092915050565b600060208201905081810360008301526136e7816131ce565b9050919050565b60006020820190508181036000830152613707816131f1565b9050919050565b6000602082019050818103600083015261372781613214565b9050919050565b6000602082019050818103600083015261374781613237565b9050919050565b600060208201905081810360008301526137678161325a565b9050919050565b600060208201905081810360008301526137878161327d565b9050919050565b600060208201905081810360008301526137a7816132a0565b9050919050565b600060208201905081810360008301526137c7816132c3565b9050919050565b600060208201905081810360008301526137e7816132e6565b9050919050565b6000602082019050818103600083015261380781613309565b9050919050565b600060208201905081810360008301526138278161332c565b9050919050565b600060208201905081810360008301526138478161334f565b9050919050565b6000602082019050818103600083015261386781613372565b9050919050565b6000602082019050818103600083015261388781613395565b9050919050565b600060208201905081810360008301526138a7816133b8565b9050919050565b600060208201905081810360008301526138c7816133db565b9050919050565b600060208201905081810360008301526138e7816133fe565b9050919050565b6000602082019050818103600083015261390781613421565b9050919050565b6000602082019050818103600083015261392781613444565b9050919050565b6000602082019050818103600083015261394781613467565b9050919050565b60006020820190508181036000830152613967816134ad565b9050919050565b60006020820190508181036000830152613987816134d0565b9050919050565b600060208201905081810360008301526139a7816134f3565b9050919050565b600060208201905081810360008301526139c781613516565b9050919050565b600060208201905081810360008301526139e781613539565b9050919050565b60006020820190508181036000830152613a078161355c565b9050919050565b60006020820190508181036000830152613a278161357f565b9050919050565b60006020820190508181036000830152613a47816135a2565b9050919050565b6000602082019050613a6360008301846135c5565b92915050565b6000604082019050613a7e60008301856135c5565b613a8b60208301846130f1565b9392505050565b600061012082019050613aa8600083018c6135c5565b613ab5602083018b61310f565b613ac2604083018a6135c5565b613acf60608301896135c5565b613adc60808301886130e2565b613ae960a08301876130f1565b613af660c0830186613100565b613b0360e0830185613100565b613b11610100830184613100565b9a9950505050505050505050565b6000604082019050613b3460008301856135c5565b613b4160208301846135c5565b9392505050565b6000606082019050613b5d60008301866135c5565b613b6a60208301856135c5565b613b7760408301846135c5565b949350505050565b600060e082019050613b94600083018a6135c5565b613ba160208301896135c5565b613bae60408301886135c5565b613bbb60608301876130e2565b613bc860808301866135c5565b613bd560a0830185613100565b613be260c08301846130e2565b98975050505050505050565b600060a082019050613c0360008301886135c5565b613c1060208301876135c5565b613c1d60408301866135c5565b613c2a60608301856130f1565b613c3760808301846130f1565b9695505050505050565b600081519050919050565b600081905092915050565b600082825260208201905092915050565b600081905092915050565b6000613c7e82613dea565b9150613c8983613dea565b9250827fffffffffffffffffffffffffffffffffffffffffffffffffffffffffffffffff03821115613cbe57613cbd613efb565b5b828201905092915050565b6000613cd482613dea565b9150613cdf83613dea565b925082613cef57613cee613f2a565b5b828204905092915050565b6000613d0582613dea565b9150613d1083613dea565b9250817fffffffffffffffffffffffffffffffffffffffffffffffffffffffffffffffff0483118215151615613d4957613d48613efb565b5b828202905092915050565b6000613d5f82613dea565b9150613d6a83613dea565b925082821015613d7d57613d7c613efb565b5b828203905092915050565b6000613d9382613dca565b9050919050565b6000613da582613dca565b9050919050565b60008115159050919050565b6000613dc382613d88565b9050919050565b600073ffffffffffffffffffffffffffffffffffffffff82169050919050565b6000819050919050565b6000613dff82613e2a565b9050919050565b6000613e1182613e18565b9050919050565b6000613e2382613dca565b9050919050565b6000613e3582613e3c565b9050919050565b6000613e4782613dca565b9050919050565b60005b83811015613e6c578082015181840152602081019050613e51565b83811115613e7b576000848401525b50505050565b6000613e8c82613dea565b91507fffffffffffffffffffffffffffffffffffffffffffffffffffffffffffffffff821415613ebf57613ebe613efb565b5b600182019050919050565b6000613ed582613dea565b9150613ee083613dea565b925082613ef057613eef613f2a565b5b828206905092915050565b7f4e487b7100000000000000000000000000000000000000000000000000000000600052601160045260246000fd5b7f4e487b7100000000000000000000000000000000000000000000000000000000600052601260045260246000fd5b6000601f19601f8301169050919050565b7f2c206e6565646564200000000000000000000000000000000000000000000000600082015250565b7f496e73756666696369656e7420636f6e74726163742062616c616e6365200000600082015250565b7f596f7520617265206e6f7420746865206f776e6572206f66207468697320747260008201527f6164650000000000000000000000000000000000000000000000000000000000602082015250565b7f4f6e6c79207468652063757272656e74206f776e65722063616e2072656c697360008201527f7420746865206974656d00000000000000000000000000000000000000000000602082015250565b7f5072696365206d7573742062652067726561746572207468616e207a65726f00600082015250565b7f6f6e6c7920746865206f776e65722063616e2063726561746520616e2061756360008201527f74696f6e00000000000000000000000000000000000000000000000000000000602082015250565b7f596f75206d757374206f776e20746865206974656d20746f2070726f706f736560008201527f2061207472616465000000000000000000000000000000000000000000000000602082015250565b7f6974656d20616c7265616479206c697374656420666f722061756374696f6e00600082015250565b7f61756374696f6e20656e64656400000000000000000000000000000000000000600082015250565b7f6974656d20646f65736e27742065786973740000000000000000000000000000600082015250565b7f6974656d20616c7265616479206c697374656420666f72207472616465000000600082015250565b7f526566756e6420746f2070726576696f7573206869676865737420626964646560008201527f72206661696c6564000000000000000000000000000000000000000000000000602082015250565b7f61756374696f6e20616c726561647920656e6465640000000000000000000000600082015250565b7f4974656d206d757374206e6f74206265206c697374656420666f72206175637460008201527f696f6e0000000000000000000000000000000000000000000000000000000000602082015250565b7f4e6f7420656e6f75676820657468657220746f20636f766572206974656d207060008201527f7269636520616e64206d61726b65742066656500000000000000000000000000602082015250565b7f4974656d20646f65736e27742065786973740000000000000000000000000000600082015250565b7f4974656d206d757374206e6f74206265206c697374656420666f72207472616460008201527f6500000000000000000000000000000000000000000000000000000000000000602082015250565b7f4974656d206d757374206e6f7420626520616c7265616479206c69737465642060008201527f666f722073616c65000000000000000000000000000000000000000000000000602082015250565b7f626964206d75737420626520686967686572207468616e2063757272656e742060008201527f6869676865737420626964000000000000000000000000000000000000000000602082015250565b7f4974656d206d757374206e6f74206265206c697374656420666f722073616c65600082015250565b7f61756374696f6e206e6f742079657420656e6465640000000000000000000000600082015250565b7f4974656d206d75737420626520617661696c61626c6520666f72207472616465600082015250565b50565b7f4974656d206e6f74206c697374656420666f722073616c652e00000000000000600082015250565b7f547261646520646f6573206e6f74206578697374000000000000000000000000600082015250565b7f596f752061726520746865206f776e6572206f662074686973206974656d0000600082015250565b7f6974656d20616c7265616479206c697374656420666f722073616c6500000000600082015250565b7f5265656e7472616e637947756172643a207265656e7472616e742063616c6c00600082015250565b7f4974656d206d757374206e6f7420626520616c7265616479206c69737465642060008201527f666f722074726164650000000000000000000000000000000000000000000000602082015250565b7f596f75206d757374206e6f7420626520746865206f776e6572206f662074686560008201527f206974656d2070726f706f73656420666f722074726164650000000000000000602082015250565b7f5374617274696e67207072696365206d7573742062652067726561746572207460008201527f68616e207a65726f000000000000000000000000000000000000000000000000602082015250565b61463281613db8565b811461463d57600080fd5b50565b61464981613dea565b811461465457600080fd5b5056fea26469706673582212201e24a6097dc525da6b55fb3050bfaacc02acfa9e19e2b2c322686edf95d8c1a164736f6c63430008040033",
  "linkReferences": {},
  "deployedLinkReferences": {}
}