{
  "_format": "hh-sol-artifact-1",
  "contractName": "Marketplace",
  "sourceName": "src/backend/contracts/Marketplace.sol",
  "abi": [
    {
      "inputs": [
        {
          "internalType": "uint256",
          "name": "_feePercent",
          "type": "uint256"
        }
      ],
      "stateMutability": "nonpayable",
      "type": "constructor"
    },
    {
      "anonymous": false,
      "inputs": [
        {
          "indexed": false,
          "internalType": "uint256",
          "name": "itemId",
          "type": "uint256"
        },
        {
          "indexed": false,
          "internalType": "uint256",
          "name": "startingPrice",
          "type": "uint256"
        },
        {
          "indexed": false,
          "internalType": "uint256",
          "name": "endTime",
          "type": "uint256"
        },
        {
          "indexed": true,
          "internalType": "address",
          "name": "seller",
          "type": "address"
        }
      ],
      "name": "AuctionCreated",
      "type": "event"
    },
    {
      "anonymous": false,
      "inputs": [
        {
          "indexed": false,
          "internalType": "uint256",
          "name": "itemId",
          "type": "uint256"
        },
        {
          "indexed": false,
          "internalType": "uint256",
          "name": "highestBid",
          "type": "uint256"
        },
        {
          "indexed": true,
          "internalType": "address",
          "name": "highestBidder",
          "type": "address"
        }
      ],
      "name": "AuctionEnded",
      "type": "event"
    },
    {
      "anonymous": false,
      "inputs": [
        {
          "indexed": false,
          "internalType": "uint256",
          "name": "itemId",
          "type": "uint256"
        },
        {
          "indexed": false,
          "internalType": "uint256",
          "name": "bidAmount",
          "type": "uint256"
        },
        {
          "indexed": true,
          "internalType": "address",
          "name": "bidder",
          "type": "address"
        }
      ],
      "name": "BidPlaced",
      "type": "event"
    },
    {
      "anonymous": false,
      "inputs": [
        {
          "indexed": false,
          "internalType": "uint256",
          "name": "itemId",
          "type": "uint256"
        },
        {
          "indexed": true,
          "internalType": "address",
          "name": "nft",
          "type": "address"
        },
        {
          "indexed": false,
          "internalType": "uint256",
          "name": "tokenId",
          "type": "uint256"
        },
        {
          "indexed": false,
          "internalType": "uint256",
          "name": "price",
          "type": "uint256"
        },
        {
          "indexed": true,
          "internalType": "address",
          "name": "seller",
          "type": "address"
        },
        {
          "indexed": true,
          "internalType": "address",
          "name": "buyer",
          "type": "address"
        }
      ],
      "name": "Bought",
      "type": "event"
    },
    {
      "anonymous": false,
      "inputs": [
        {
          "indexed": false,
          "internalType": "uint256",
          "name": "itemId",
          "type": "uint256"
        },
        {
          "indexed": true,
          "internalType": "address",
          "name": "nft",
          "type": "address"
        },
        {
          "indexed": false,
          "internalType": "uint256",
          "name": "tokenId",
          "type": "uint256"
        },
        {
          "indexed": false,
          "internalType": "uint256",
          "name": "price",
          "type": "uint256"
        },
        {
          "indexed": true,
          "internalType": "address",
          "name": "seller",
          "type": "address"
        },
        {
          "indexed": true,
          "internalType": "address",
          "name": "owner",
          "type": "address"
        }
      ],
      "name": "Offered",
      "type": "event"
    },
    {
      "inputs": [
        {
          "internalType": "uint256",
          "name": "",
          "type": "uint256"
        }
      ],
      "name": "auctions",
      "outputs": [
        {
          "internalType": "uint256",
          "name": "itemId",
          "type": "uint256"
        },
        {
          "internalType": "uint256",
          "name": "startingPrice",
          "type": "uint256"
        },
        {
          "internalType": "uint256",
          "name": "highestBid",
          "type": "uint256"
        },
        {
          "internalType": "address payable",
          "name": "highestBidder",
          "type": "address"
        },
        {
          "internalType": "uint256",
          "name": "endTime",
          "type": "uint256"
        },
        {
          "internalType": "bool",
          "name": "ended",
          "type": "bool"
        },
        {
          "internalType": "address payable",
          "name": "seller",
          "type": "address"
        }
      ],
      "stateMutability": "view",
      "type": "function"
    },
    {
      "inputs": [
        {
          "internalType": "uint256",
          "name": "_itemId",
          "type": "uint256"
        }
      ],
      "name": "bid",
      "outputs": [],
      "stateMutability": "payable",
      "type": "function"
    },
    {
      "inputs": [
        {
          "internalType": "uint256",
          "name": "_itemId",
          "type": "uint256"
        },
        {
          "internalType": "uint256",
          "name": "_startingPrice",
          "type": "uint256"
        },
        {
          "internalType": "uint256",
          "name": "_duration",
          "type": "uint256"
        }
      ],
      "name": "createAuction",
      "outputs": [],
      "stateMutability": "nonpayable",
      "type": "function"
    },
    {
      "inputs": [
        {
          "internalType": "uint256",
          "name": "_itemId",
          "type": "uint256"
        }
      ],
      "name": "endAuction",
      "outputs": [],
      "stateMutability": "nonpayable",
      "type": "function"
    },
    {
      "inputs": [],
      "name": "feeAccount",
      "outputs": [
        {
          "internalType": "address payable",
          "name": "",
          "type": "address"
        }
      ],
      "stateMutability": "view",
      "type": "function"
    },
    {
      "inputs": [],
      "name": "feePercent",
      "outputs": [
        {
          "internalType": "uint256",
          "name": "",
          "type": "uint256"
        }
      ],
      "stateMutability": "view",
      "type": "function"
    },
    {
      "inputs": [
        {
          "internalType": "uint256",
          "name": "_itemId",
          "type": "uint256"
        }
      ],
      "name": "getTotalPrice",
      "outputs": [
        {
          "internalType": "uint256",
          "name": "",
          "type": "uint256"
        }
      ],
      "stateMutability": "view",
      "type": "function"
    },
    {
      "inputs": [],
      "name": "itemCount",
      "outputs": [
        {
          "internalType": "uint256",
          "name": "",
          "type": "uint256"
        }
      ],
      "stateMutability": "view",
      "type": "function"
    },
    {
      "inputs": [
        {
          "internalType": "uint256",
          "name": "",
          "type": "uint256"
        }
      ],
      "name": "items",
      "outputs": [
        {
          "internalType": "uint256",
          "name": "itemId",
          "type": "uint256"
        },
        {
          "internalType": "contract IERC721",
          "name": "nft",
          "type": "address"
        },
        {
          "internalType": "uint256",
          "name": "tokenId",
          "type": "uint256"
        },
        {
          "internalType": "uint256",
          "name": "price",
          "type": "uint256"
        },
        {
          "internalType": "address payable",
          "name": "seller",
          "type": "address"
        },
        {
          "internalType": "address",
          "name": "owner",
          "type": "address"
        },
        {
          "internalType": "bool",
          "name": "sold",
          "type": "bool"
        }
      ],
      "stateMutability": "view",
      "type": "function"
    },
    {
      "inputs": [
        {
          "internalType": "contract IERC721",
          "name": "_nft",
          "type": "address"
        },
        {
          "internalType": "uint256",
          "name": "_tokenId",
          "type": "uint256"
        },
        {
          "internalType": "uint256",
          "name": "_price",
          "type": "uint256"
        }
      ],
      "name": "makeItem",
      "outputs": [],
      "stateMutability": "nonpayable",
      "type": "function"
    },
    {
      "inputs": [
        {
          "internalType": "uint256",
          "name": "_itemId",
          "type": "uint256"
        }
      ],
      "name": "purchaseItem",
      "outputs": [],
      "stateMutability": "payable",
      "type": "function"
    },
    {
      "inputs": [
        {
          "internalType": "uint256",
          "name": "_itemId",
          "type": "uint256"
        },
        {
          "internalType": "uint256",
          "name": "_newPrice",
          "type": "uint256"
        }
      ],
      "name": "relistItem",
      "outputs": [],
      "stateMutability": "nonpayable",
      "type": "function"
    }
  ],
  "bytecode": "0x60c06040523480156200001157600080fd5b506040516200283e3803806200283e83398181016040528101906200003791906200009c565b60016000819055503373ffffffffffffffffffffffffffffffffffffffff1660808173ffffffffffffffffffffffffffffffffffffffff1660601b815250508060a0818152505050620000ec565b6000815190506200009681620000d2565b92915050565b600060208284031215620000af57600080fd5b6000620000bf8482850162000085565b91505092915050565b6000819050919050565b620000dd81620000c8565b8114620000e957600080fd5b50565b60805160601c60a05161271b62000123600039600081816109710152610e9301526000818161057301526114ed015261271b6000f3fe6080604052600436106100a75760003560e01c8063b9a2de3a11610064578063b9a2de3a146101b5578063bfb231d2146101de578063ca7dd37514610221578063cda4beef1461025e578063d38ea5bf14610287578063fa00afc7146102a3576100a7565b8063454a2ab3146100ac578063571a26a0146100c857806365e17c9d1461010b5780636bfb0d011461013657806375ad1b12146101615780637fd6f15c1461018a575b600080fd5b6100c660048036038101906100c19190611afa565b6102cc565b005b3480156100d457600080fd5b506100ef60048036038101906100ea9190611afa565b6104e2565b60405161010297969594939291906120e2565b60405180910390f35b34801561011757600080fd5b50610120610571565b60405161012d9190611dcf565b60405180910390f35b34801561014257600080fd5b5061014b610595565b6040516101589190611ff8565b60405180910390f35b34801561016d57600080fd5b5061018860048036038101906101839190611b23565b61059b565b005b34801561019657600080fd5b5061019f61096f565b6040516101ac9190611ff8565b60405180910390f35b3480156101c157600080fd5b506101dc60048036038101906101d79190611afa565b610993565b005b3480156101ea57600080fd5b5061020560048036038101906102009190611afa565b610dde565b6040516102189796959493929190612013565b60405180910390f35b34801561022d57600080fd5b5061024860048036038101906102439190611afa565b610e8d565b6040516102559190611ff8565b60405180910390f35b34801561026a57600080fd5b5061028560048036038101906102809190611b5f565b610ef0565b005b6102a1600480360381019061029c9190611afa565b611324565b005b3480156102af57600080fd5b506102ca60048036038101906102c59190611aab565b611735565b005b60026000541415610312576040517f08c379a000000000000000000000000000000000000000000000000000000000815260040161030990611fb8565b60405180910390fd5b6002600081905550600060036000838152602001908152602001600020905080600401544210610377576040517f08c379a000000000000000000000000000000000000000000000000000000000815260040161036e90611ef8565b60405180910390fd5b806002015434116103bd576040517f08c379a00000000000000000000000000000000000000000000000000000000081526004016103b490611f78565b60405180910390fd5b60008160020154111561043a578060030160009054906101000a900473ffffffffffffffffffffffffffffffffffffffff1673ffffffffffffffffffffffffffffffffffffffff166108fc82600201549081150290604051600060405180830381858888f19350505050158015610438573d6000803e3d6000fd5b505b348160020181905550338160030160006101000a81548173ffffffffffffffffffffffffffffffffffffffff021916908373ffffffffffffffffffffffffffffffffffffffff1602179055503373ffffffffffffffffffffffffffffffffffffffff167fbfbf2db1f7880e9487cbceeb181c4dce363d0ad1b6e73f5aa494ffb5d919149683346040516104ce929190612082565b60405180910390a250600160008190555050565b60036020528060005260406000206000915090508060000154908060010154908060020154908060030160009054906101000a900473ffffffffffffffffffffffffffffffffffffffff16908060040154908060050160009054906101000a900460ff16908060050160019054906101000a900473ffffffffffffffffffffffffffffffffffffffff16905087565b7f000000000000000000000000000000000000000000000000000000000000000081565b60015481565b600260005414156105e1576040517f08c379a00000000000000000000000000000000000000000000000000000000081526004016105d890611fb8565b60405180910390fd5b6002600081905550600060026000848152602001908152602001600020905060008311801561061257506001548311155b610651576040517f08c379a000000000000000000000000000000000000000000000000000000000815260040161064890611f18565b60405180910390fd5b8060050160149054906101000a900460ff166106a2576040517f08c379a000000000000000000000000000000000000000000000000000000000815260040161069990611ed8565b60405180910390fd5b8060050160009054906101000a900473ffffffffffffffffffffffffffffffffffffffff1673ffffffffffffffffffffffffffffffffffffffff163373ffffffffffffffffffffffffffffffffffffffff1614610734576040517f08c379a000000000000000000000000000000000000000000000000000000000815260040161072b90611f38565b60405180910390fd5b60008211610777576040517f08c379a000000000000000000000000000000000000000000000000000000000815260040161076e90611e78565b60405180910390fd5b8060010160009054906101000a900473ffffffffffffffffffffffffffffffffffffffff1673ffffffffffffffffffffffffffffffffffffffff166323b872dd333084600201546040518463ffffffff1660e01b81526004016107dc93929190611e21565b600060405180830381600087803b1580156107f657600080fd5b505af115801561080a573d6000803e3d6000fd5b50505050818160030181905550338160040160006101000a81548173ffffffffffffffffffffffffffffffffffffffff021916908373ffffffffffffffffffffffffffffffffffffffff16021790555060008160050160146101000a81548160ff021916908315150217905550338160050160006101000a81548173ffffffffffffffffffffffffffffffffffffffff021916908373ffffffffffffffffffffffffffffffffffffffff1602179055503373ffffffffffffffffffffffffffffffffffffffff163373ffffffffffffffffffffffffffffffffffffffff168260010160009054906101000a900473ffffffffffffffffffffffffffffffffffffffff1673ffffffffffffffffffffffffffffffffffffffff167fe4ef384ea82c018889dc208d54c1dfda9f0e81eaec76e042966cb59d46fd8d298685600201548760405161095a939291906120ab565b60405180910390a45060016000819055505050565b7f000000000000000000000000000000000000000000000000000000000000000081565b600260005414156109d9576040517f08c379a00000000000000000000000000000000000000000000000000000000081526004016109d090611fb8565b60405180910390fd5b600260008190555060006003600083815260200190815260200160002090508060040154421015610a3f576040517f08c379a0000000000000000000000000000000000000000000000000000000008152600401610a3690611f98565b60405180910390fd5b8060050160009054906101000a900460ff1615610a91576040517f08c379a0000000000000000000000000000000000000000000000000000000008152600401610a8890611f58565b60405180910390fd5b60018160050160006101000a81548160ff021916908315150217905550600081600201541115610cfe578060050160019054906101000a900473ffffffffffffffffffffffffffffffffffffffff1673ffffffffffffffffffffffffffffffffffffffff166108fc82600201549081150290604051600060405180830381858888f19350505050158015610b29573d6000803e3d6000fd5b5060006002600084815260200190815260200160002090508060010160009054906101000a900473ffffffffffffffffffffffffffffffffffffffff1673ffffffffffffffffffffffffffffffffffffffff166323b872dd308460030160009054906101000a900473ffffffffffffffffffffffffffffffffffffffff1684600201546040518463ffffffff1660e01b8152600401610bca93929190611dea565b600060405180830381600087803b158015610be457600080fd5b505af1158015610bf8573d6000803e3d6000fd5b5050505060018160050160146101000a81548160ff0219169083151502179055508160030160009054906101000a900473ffffffffffffffffffffffffffffffffffffffff168160050160006101000a81548173ffffffffffffffffffffffffffffffffffffffff021916908373ffffffffffffffffffffffffffffffffffffffff1602179055508160030160009054906101000a900473ffffffffffffffffffffffffffffffffffffffff1673ffffffffffffffffffffffffffffffffffffffff167fbafc4bda865d4d1f8d5b16f883e996fde0fe71112fac81503876d35375694400848460020154604051610cf0929190612082565b60405180910390a250610dd2565b60006002600084815260200190815260200160002090508060010160009054906101000a900473ffffffffffffffffffffffffffffffffffffffff1673ffffffffffffffffffffffffffffffffffffffff166323b872dd308460050160019054906101000a900473ffffffffffffffffffffffffffffffffffffffff1684600201546040518463ffffffff1660e01b8152600401610d9e93929190611dea565b600060405180830381600087803b158015610db857600080fd5b505af1158015610dcc573d6000803e3d6000fd5b50505050505b50600160008190555050565b60026020528060005260406000206000915090508060000154908060010160009054906101000a900473ffffffffffffffffffffffffffffffffffffffff16908060020154908060030154908060040160009054906101000a900473ffffffffffffffffffffffffffffffffffffffff16908060050160009054906101000a900473ffffffffffffffffffffffffffffffffffffffff16908060050160149054906101000a900460ff16905087565b600060647f00000000000000000000000000000000000000000000000000000000000000006064610ebe9190612162565b6002600085815260200190815260200160002060030154610edf91906121e9565b610ee991906121b8565b9050919050565b60026000541415610f36576040517f08c379a0000000000000000000000000000000000000000000000000000000008152600401610f2d90611fb8565b60405180910390fd5b60026000819055506000600260008581526020019081526020016000209050600084118015610f6757506001548411155b610fa6576040517f08c379a0000000000000000000000000000000000000000000000000000000008152600401610f9d90611f18565b60405180910390fd5b8060050160009054906101000a900473ffffffffffffffffffffffffffffffffffffffff1673ffffffffffffffffffffffffffffffffffffffff163373ffffffffffffffffffffffffffffffffffffffff1614611038576040517f08c379a000000000000000000000000000000000000000000000000000000000815260040161102f90611e98565b60405180910390fd5b8060050160149054906101000a900460ff16611089576040517f08c379a000000000000000000000000000000000000000000000000000000000815260040161108090611e58565b60405180910390fd5b600083116110cc576040517f08c379a00000000000000000000000000000000000000000000000000000000081526004016110c390611fd8565b60405180910390fd5b8060010160009054906101000a900473ffffffffffffffffffffffffffffffffffffffff1673ffffffffffffffffffffffffffffffffffffffff166323b872dd333084600201546040518463ffffffff1660e01b815260040161113193929190611e21565b600060405180830381600087803b15801561114b57600080fd5b505af115801561115f573d6000803e3d6000fd5b50505050600082426111719190612162565b90506040518060e0016040528086815260200185815260200160008152602001600073ffffffffffffffffffffffffffffffffffffffff1681526020018281526020016000151581526020013373ffffffffffffffffffffffffffffffffffffffff168152506003600087815260200190815260200160002060008201518160000155602082015181600101556040820151816002015560608201518160030160006101000a81548173ffffffffffffffffffffffffffffffffffffffff021916908373ffffffffffffffffffffffffffffffffffffffff1602179055506080820151816004015560a08201518160050160006101000a81548160ff02191690831515021790555060c08201518160050160016101000a81548173ffffffffffffffffffffffffffffffffffffffff021916908373ffffffffffffffffffffffffffffffffffffffff1602179055509050503373ffffffffffffffffffffffffffffffffffffffff167f31601d099683117d912ba8d2e0a9265379e3e1325353b6effa37c6ef86a9cb0386868460405161130d939291906120ab565b60405180910390a250506001600081905550505050565b6002600054141561136a576040517f08c379a000000000000000000000000000000000000000000000000000000000815260040161136190611fb8565b60405180910390fd5b6002600081905550600061137d82610e8d565b905060006002600084815260200190815260200160002090506000831180156113a857506001548311155b6113e7576040517f08c379a00000000000000000000000000000000000000000000000000000000081526004016113de90611f18565b60405180910390fd5b8134101561142a576040517f08c379a000000000000000000000000000000000000000000000000000000000815260040161142190611eb8565b60405180910390fd5b8060050160149054906101000a900460ff161561147c576040517f08c379a000000000000000000000000000000000000000000000000000000000815260040161147390611e58565b60405180910390fd5b8060040160009054906101000a900473ffffffffffffffffffffffffffffffffffffffff1673ffffffffffffffffffffffffffffffffffffffff166108fc82600301549081150290604051600060405180830381858888f193505050501580156114ea573d6000803e3d6000fd5b507f000000000000000000000000000000000000000000000000000000000000000073ffffffffffffffffffffffffffffffffffffffff166108fc8260030154846115359190612243565b9081150290604051600060405180830381858888f19350505050158015611560573d6000803e3d6000fd5b5060018160050160146101000a81548160ff021916908315150217905550338160050160006101000a81548173ffffffffffffffffffffffffffffffffffffffff021916908373ffffffffffffffffffffffffffffffffffffffff1602179055508060010160009054906101000a900473ffffffffffffffffffffffffffffffffffffffff1673ffffffffffffffffffffffffffffffffffffffff166323b872dd303384600201546040518463ffffffff1660e01b815260040161162693929190611e21565b600060405180830381600087803b15801561164057600080fd5b505af1158015611654573d6000803e3d6000fd5b505050503373ffffffffffffffffffffffffffffffffffffffff168160040160009054906101000a900473ffffffffffffffffffffffffffffffffffffffff1673ffffffffffffffffffffffffffffffffffffffff168260010160009054906101000a900473ffffffffffffffffffffffffffffffffffffffff1673ffffffffffffffffffffffffffffffffffffffff167f8b4c9c8a607d67b321582dd8461041b1dc2ceeca70c8b7f37f8e02095cf2e76d8685600201548660030154604051611720939291906120ab565b60405180910390a45050600160008190555050565b6002600054141561177b576040517f08c379a000000000000000000000000000000000000000000000000000000000815260040161177290611fb8565b60405180910390fd5b6002600081905550600081116117c6576040517f08c379a00000000000000000000000000000000000000000000000000000000081526004016117bd90611e78565b60405180910390fd5b600160008154809291906117d99061233d565b91905055508273ffffffffffffffffffffffffffffffffffffffff166323b872dd3330856040518463ffffffff1660e01b815260040161181b93929190611e21565b600060405180830381600087803b15801561183557600080fd5b505af1158015611849573d6000803e3d6000fd5b505050506040518060e0016040528060015481526020018473ffffffffffffffffffffffffffffffffffffffff1681526020018381526020018281526020013373ffffffffffffffffffffffffffffffffffffffff1681526020013373ffffffffffffffffffffffffffffffffffffffff168152602001600015158152506002600060015481526020019081526020016000206000820151816000015560208201518160010160006101000a81548173ffffffffffffffffffffffffffffffffffffffff021916908373ffffffffffffffffffffffffffffffffffffffff160217905550604082015181600201556060820151816003015560808201518160040160006101000a81548173ffffffffffffffffffffffffffffffffffffffff021916908373ffffffffffffffffffffffffffffffffffffffff16021790555060a08201518160050160006101000a81548173ffffffffffffffffffffffffffffffffffffffff021916908373ffffffffffffffffffffffffffffffffffffffff16021790555060c08201518160050160146101000a81548160ff0219169083151502179055509050503373ffffffffffffffffffffffffffffffffffffffff163373ffffffffffffffffffffffffffffffffffffffff168473ffffffffffffffffffffffffffffffffffffffff167fe4ef384ea82c018889dc208d54c1dfda9f0e81eaec76e042966cb59d46fd8d296001548686604051611a6c939291906120ab565b60405180910390a46001600081905550505050565b600081359050611a90816126b7565b92915050565b600081359050611aa5816126ce565b92915050565b600080600060608486031215611ac057600080fd5b6000611ace86828701611a81565b9350506020611adf86828701611a96565b9250506040611af086828701611a96565b9150509250925092565b600060208284031215611b0c57600080fd5b6000611b1a84828501611a96565b91505092915050565b60008060408385031215611b3657600080fd5b6000611b4485828601611a96565b9250506020611b5585828601611a96565b9150509250929050565b600080600060608486031215611b7457600080fd5b6000611b8286828701611a96565b9350506020611b9386828701611a96565b9250506040611ba486828701611a96565b9150509250925092565b611bb7816122e3565b82525050565b611bc681612289565b82525050565b611bd581612277565b82525050565b611be48161229b565b82525050565b611bf3816122f5565b82525050565b6000611c06601183612151565b9150611c11826123e4565b602082019050919050565b6000611c29601f83612151565b9150611c348261240d565b602082019050919050565b6000611c4c602483612151565b9150611c5782612436565b604082019050919050565b6000611c6f603383612151565b9150611c7a82612485565b604082019050919050565b6000611c92601a83612151565b9150611c9d826124d4565b602082019050919050565b6000611cb5600d83612151565b9150611cc0826124fd565b602082019050919050565b6000611cd8601283612151565b9150611ce382612526565b602082019050919050565b6000611cfb602a83612151565b9150611d068261254f565b604082019050919050565b6000611d1e601583612151565b9150611d298261259e565b602082019050919050565b6000611d41602b83612151565b9150611d4c826125c7565b604082019050919050565b6000611d64601583612151565b9150611d6f82612616565b602082019050919050565b6000611d87601f83612151565b9150611d928261263f565b602082019050919050565b6000611daa602883612151565b9150611db582612668565b604082019050919050565b611dc9816122d9565b82525050565b6000602082019050611de46000830184611bbd565b92915050565b6000606082019050611dff6000830186611bcc565b611e0c6020830185611bae565b611e196040830184611dc0565b949350505050565b6000606082019050611e366000830186611bcc565b611e436020830185611bcc565b611e506040830184611dc0565b949350505050565b60006020820190508181036000830152611e7181611bf9565b9050919050565b60006020820190508181036000830152611e9181611c1c565b9050919050565b60006020820190508181036000830152611eb181611c3f565b9050919050565b60006020820190508181036000830152611ed181611c62565b9050919050565b60006020820190508181036000830152611ef181611c85565b9050919050565b60006020820190508181036000830152611f1181611ca8565b9050919050565b60006020820190508181036000830152611f3181611ccb565b9050919050565b60006020820190508181036000830152611f5181611cee565b9050919050565b60006020820190508181036000830152611f7181611d11565b9050919050565b60006020820190508181036000830152611f9181611d34565b9050919050565b60006020820190508181036000830152611fb181611d57565b9050919050565b60006020820190508181036000830152611fd181611d7a565b9050919050565b60006020820190508181036000830152611ff181611d9d565b9050919050565b600060208201905061200d6000830184611dc0565b92915050565b600060e082019050612028600083018a611dc0565b6120356020830189611bea565b6120426040830188611dc0565b61204f6060830187611dc0565b61205c6080830186611bbd565b61206960a0830185611bcc565b61207660c0830184611bdb565b98975050505050505050565b60006040820190506120976000830185611dc0565b6120a46020830184611dc0565b9392505050565b60006060820190506120c06000830186611dc0565b6120cd6020830185611dc0565b6120da6040830184611dc0565b949350505050565b600060e0820190506120f7600083018a611dc0565b6121046020830189611dc0565b6121116040830188611dc0565b61211e6060830187611bbd565b61212b6080830186611dc0565b61213860a0830185611bdb565b61214560c0830184611bbd565b98975050505050505050565b600082825260208201905092915050565b600061216d826122d9565b9150612178836122d9565b9250827fffffffffffffffffffffffffffffffffffffffffffffffffffffffffffffffff038211156121ad576121ac612386565b5b828201905092915050565b60006121c3826122d9565b91506121ce836122d9565b9250826121de576121dd6123b5565b5b828204905092915050565b60006121f4826122d9565b91506121ff836122d9565b9250817fffffffffffffffffffffffffffffffffffffffffffffffffffffffffffffffff048311821515161561223857612237612386565b5b828202905092915050565b600061224e826122d9565b9150612259836122d9565b92508282101561226c5761226b612386565b5b828203905092915050565b6000612282826122b9565b9050919050565b6000612294826122b9565b9050919050565b60008115159050919050565b60006122b282612277565b9050919050565b600073ffffffffffffffffffffffffffffffffffffffff82169050919050565b6000819050919050565b60006122ee82612319565b9050919050565b600061230082612307565b9050919050565b6000612312826122b9565b9050919050565b60006123248261232b565b9050919050565b6000612336826122b9565b9050919050565b6000612348826122d9565b91507fffffffffffffffffffffffffffffffffffffffffffffffffffffffffffffffff82141561237b5761237a612386565b5b600182019050919050565b7f4e487b7100000000000000000000000000000000000000000000000000000000600052601160045260246000fd5b7f4e487b7100000000000000000000000000000000000000000000000000000000600052601260045260246000fd5b7f6974656d20616c726561647920736f6c64000000000000000000000000000000600082015250565b7f5072696365206d7573742062652067726561746572207468616e207a65726f00600082015250565b7f6f6e6c7920746865206f776e65722063616e2063726561746520616e2061756360008201527f74696f6e00000000000000000000000000000000000000000000000000000000602082015250565b7f6e6f7420656e6f75676820657468657220746f20636f766572206974656d207060008201527f7269636520616e64206d61726b65742066656500000000000000000000000000602082015250565b7f6974656d20686173206e6f74206265656e20736f6c6420796574000000000000600082015250565b7f61756374696f6e20656e64656400000000000000000000000000000000000000600082015250565b7f6974656d20646f65736e27742065786973740000000000000000000000000000600082015250565b7f6f6e6c79207468652063757272656e74206f776e65722063616e2072656c697360008201527f7420746865206974656d00000000000000000000000000000000000000000000602082015250565b7f61756374696f6e20616c726561647920656e6465640000000000000000000000600082015250565b7f626964206d75737420626520686967686572207468616e2063757272656e742060008201527f6869676865737420626964000000000000000000000000000000000000000000602082015250565b7f61756374696f6e206e6f742079657420656e6465640000000000000000000000600082015250565b7f5265656e7472616e637947756172643a207265656e7472616e742063616c6c00600082015250565b7f5374617274696e67207072696365206d7573742062652067726561746572207460008201527f68616e207a65726f000000000000000000000000000000000000000000000000602082015250565b6126c0816122a7565b81146126cb57600080fd5b50565b6126d7816122d9565b81146126e257600080fd5b5056fea264697066735822122051dc7590f07d1bd533ce2366b633769e1830e056ccd055c6febd63027275d0f564736f6c63430008040033",
  "linkReferences": {},
  "deployedLinkReferences": {}
}