{
  "_format": "hh-sol-artifact-1",
  "contractName": "Marketplace",
  "sourceName": "src/backend/contracts/Marketplace.sol",
  "abi": [
    {
      "inputs": [
        {
          "internalType": "uint256",
          "name": "_feePercent",
          "type": "uint256"
        }
      ],
      "stateMutability": "nonpayable",
      "type": "constructor"
    },
    {
      "anonymous": false,
      "inputs": [
        {
          "indexed": false,
          "internalType": "uint256",
          "name": "itemId",
          "type": "uint256"
        },
        {
          "indexed": false,
          "internalType": "uint256",
          "name": "startingPrice",
          "type": "uint256"
        },
        {
          "indexed": false,
          "internalType": "uint256",
          "name": "endTime",
          "type": "uint256"
        },
        {
          "indexed": true,
          "internalType": "address",
          "name": "seller",
          "type": "address"
        }
      ],
      "name": "AuctionCreated",
      "type": "event"
    },
    {
      "anonymous": false,
      "inputs": [
        {
          "indexed": false,
          "internalType": "uint256",
          "name": "itemId",
          "type": "uint256"
        },
        {
          "indexed": false,
          "internalType": "uint256",
          "name": "highestBid",
          "type": "uint256"
        },
        {
          "indexed": true,
          "internalType": "address",
          "name": "highestBidder",
          "type": "address"
        }
      ],
      "name": "AuctionEnded",
      "type": "event"
    },
    {
      "anonymous": false,
      "inputs": [
        {
          "indexed": false,
          "internalType": "uint256",
          "name": "itemId",
          "type": "uint256"
        },
        {
          "indexed": false,
          "internalType": "uint256",
          "name": "bidAmount",
          "type": "uint256"
        },
        {
          "indexed": true,
          "internalType": "address",
          "name": "bidder",
          "type": "address"
        }
      ],
      "name": "BidPlaced",
      "type": "event"
    },
    {
      "anonymous": false,
      "inputs": [
        {
          "indexed": false,
          "internalType": "uint256",
          "name": "itemId",
          "type": "uint256"
        },
        {
          "indexed": true,
          "internalType": "address",
          "name": "nft",
          "type": "address"
        },
        {
          "indexed": false,
          "internalType": "uint256",
          "name": "tokenId",
          "type": "uint256"
        },
        {
          "indexed": false,
          "internalType": "uint256",
          "name": "price",
          "type": "uint256"
        },
        {
          "indexed": true,
          "internalType": "address",
          "name": "seller",
          "type": "address"
        },
        {
          "indexed": true,
          "internalType": "address",
          "name": "buyer",
          "type": "address"
        }
      ],
      "name": "Bought",
      "type": "event"
    },
    {
      "anonymous": false,
      "inputs": [
        {
          "indexed": false,
          "internalType": "uint256",
          "name": "itemId",
          "type": "uint256"
        },
        {
          "indexed": true,
          "internalType": "address",
          "name": "nft",
          "type": "address"
        },
        {
          "indexed": false,
          "internalType": "uint256",
          "name": "tokenId",
          "type": "uint256"
        },
        {
          "indexed": false,
          "internalType": "uint256",
          "name": "price",
          "type": "uint256"
        },
        {
          "indexed": true,
          "internalType": "address",
          "name": "seller",
          "type": "address"
        },
        {
          "indexed": true,
          "internalType": "address",
          "name": "owner",
          "type": "address"
        }
      ],
      "name": "Offered",
      "type": "event"
    },
    {
      "anonymous": false,
      "inputs": [
        {
          "indexed": false,
          "internalType": "uint256",
          "name": "tradeId",
          "type": "uint256"
        },
        {
          "indexed": false,
          "internalType": "address",
          "name": "participant",
          "type": "address"
        }
      ],
      "name": "TradeApproved",
      "type": "event"
    },
    {
      "anonymous": false,
      "inputs": [
        {
          "indexed": false,
          "internalType": "uint256",
          "name": "tradeId",
          "type": "uint256"
        },
        {
          "indexed": false,
          "internalType": "uint256",
          "name": "itemId1",
          "type": "uint256"
        },
        {
          "indexed": false,
          "internalType": "uint256",
          "name": "itemId2",
          "type": "uint256"
        },
        {
          "indexed": false,
          "internalType": "address",
          "name": "participant1",
          "type": "address"
        },
        {
          "indexed": false,
          "internalType": "address",
          "name": "participant2",
          "type": "address"
        }
      ],
      "name": "TradeCompleted",
      "type": "event"
    },
    {
      "anonymous": false,
      "inputs": [
        {
          "indexed": false,
          "internalType": "uint256",
          "name": "tradeId",
          "type": "uint256"
        },
        {
          "indexed": false,
          "internalType": "uint256",
          "name": "itemId",
          "type": "uint256"
        },
        {
          "indexed": false,
          "internalType": "address",
          "name": "owner",
          "type": "address"
        }
      ],
      "name": "TradeCreated",
      "type": "event"
    },
    {
      "anonymous": false,
      "inputs": [
        {
          "indexed": false,
          "internalType": "uint256",
          "name": "tradeId",
          "type": "uint256"
        },
        {
          "indexed": false,
          "internalType": "uint256",
          "name": "itemId1",
          "type": "uint256"
        },
        {
          "indexed": false,
          "internalType": "uint256",
          "name": "itemId2",
          "type": "uint256"
        },
        {
          "indexed": false,
          "internalType": "address",
          "name": "participant1",
          "type": "address"
        },
        {
          "indexed": false,
          "internalType": "address",
          "name": "participant2",
          "type": "address"
        }
      ],
      "name": "TradeProposed",
      "type": "event"
    },
    {
      "inputs": [
        {
          "internalType": "uint256",
          "name": "_tradeId",
          "type": "uint256"
        }
      ],
      "name": "approveTrade",
      "outputs": [],
      "stateMutability": "nonpayable",
      "type": "function"
    },
    {
      "inputs": [
        {
          "internalType": "uint256",
          "name": "",
          "type": "uint256"
        }
      ],
      "name": "auctions",
      "outputs": [
        {
          "internalType": "uint256",
          "name": "itemId",
          "type": "uint256"
        },
        {
          "internalType": "uint256",
          "name": "startingPrice",
          "type": "uint256"
        },
        {
          "internalType": "uint256",
          "name": "highestBid",
          "type": "uint256"
        },
        {
          "internalType": "address payable",
          "name": "highestBidder",
          "type": "address"
        },
        {
          "internalType": "uint256",
          "name": "endTime",
          "type": "uint256"
        },
        {
          "internalType": "bool",
          "name": "ended",
          "type": "bool"
        },
        {
          "internalType": "address payable",
          "name": "seller",
          "type": "address"
        }
      ],
      "stateMutability": "view",
      "type": "function"
    },
    {
      "inputs": [
        {
          "internalType": "uint256",
          "name": "_itemId",
          "type": "uint256"
        }
      ],
      "name": "bid",
      "outputs": [],
      "stateMutability": "payable",
      "type": "function"
    },
    {
      "inputs": [
        {
          "internalType": "uint256",
          "name": "_itemId",
          "type": "uint256"
        },
        {
          "internalType": "uint256",
          "name": "_startingPrice",
          "type": "uint256"
        },
        {
          "internalType": "uint256",
          "name": "_duration",
          "type": "uint256"
        }
      ],
      "name": "createAuction",
      "outputs": [],
      "stateMutability": "nonpayable",
      "type": "function"
    },
    {
      "inputs": [
        {
          "internalType": "uint256",
          "name": "_itemId",
          "type": "uint256"
        }
      ],
      "name": "createTrade",
      "outputs": [],
      "stateMutability": "nonpayable",
      "type": "function"
    },
    {
      "inputs": [
        {
          "internalType": "uint256",
          "name": "_itemId",
          "type": "uint256"
        }
      ],
      "name": "endAuction",
      "outputs": [],
      "stateMutability": "payable",
      "type": "function"
    },
    {
      "inputs": [],
      "name": "feeAccount",
      "outputs": [
        {
          "internalType": "address payable",
          "name": "",
          "type": "address"
        }
      ],
      "stateMutability": "view",
      "type": "function"
    },
    {
      "inputs": [],
      "name": "feePercent",
      "outputs": [
        {
          "internalType": "uint256",
          "name": "",
          "type": "uint256"
        }
      ],
      "stateMutability": "view",
      "type": "function"
    },
    {
      "inputs": [
        {
          "internalType": "uint256",
          "name": "_itemId",
          "type": "uint256"
        }
      ],
      "name": "getTotalPrice",
      "outputs": [
        {
          "internalType": "uint256",
          "name": "",
          "type": "uint256"
        }
      ],
      "stateMutability": "view",
      "type": "function"
    },
    {
      "inputs": [],
      "name": "itemCount",
      "outputs": [
        {
          "internalType": "uint256",
          "name": "",
          "type": "uint256"
        }
      ],
      "stateMutability": "view",
      "type": "function"
    },
    {
      "inputs": [
        {
          "internalType": "uint256",
          "name": "",
          "type": "uint256"
        }
      ],
      "name": "items",
      "outputs": [
        {
          "internalType": "uint256",
          "name": "itemId",
          "type": "uint256"
        },
        {
          "internalType": "contract IERC721",
          "name": "nft",
          "type": "address"
        },
        {
          "internalType": "uint256",
          "name": "tokenId",
          "type": "uint256"
        },
        {
          "internalType": "uint256",
          "name": "price",
          "type": "uint256"
        },
        {
          "internalType": "address payable",
          "name": "seller",
          "type": "address"
        },
        {
          "internalType": "address",
          "name": "owner",
          "type": "address"
        },
        {
          "internalType": "bool",
          "name": "listedForSale",
          "type": "bool"
        },
        {
          "internalType": "bool",
          "name": "listedForAuction",
          "type": "bool"
        },
        {
          "internalType": "bool",
          "name": "listedForTrade",
          "type": "bool"
        }
      ],
      "stateMutability": "view",
      "type": "function"
    },
    {
      "inputs": [
        {
          "internalType": "uint256",
          "name": "_itemId",
          "type": "uint256"
        },
        {
          "internalType": "uint256",
          "name": "_newPrice",
          "type": "uint256"
        }
      ],
      "name": "listItem",
      "outputs": [],
      "stateMutability": "nonpayable",
      "type": "function"
    },
    {
      "inputs": [
        {
          "internalType": "contract IERC721",
          "name": "_nft",
          "type": "address"
        },
        {
          "internalType": "uint256",
          "name": "_tokenId",
          "type": "uint256"
        },
        {
          "internalType": "uint256",
          "name": "_price",
          "type": "uint256"
        }
      ],
      "name": "makeItem",
      "outputs": [],
      "stateMutability": "nonpayable",
      "type": "function"
    },
    {
      "inputs": [
        {
          "internalType": "uint256",
          "name": "_itemId1",
          "type": "uint256"
        },
        {
          "internalType": "uint256",
          "name": "_itemId2",
          "type": "uint256"
        }
      ],
      "name": "proposeTrade",
      "outputs": [],
      "stateMutability": "nonpayable",
      "type": "function"
    },
    {
      "inputs": [
        {
          "internalType": "uint256",
          "name": "_itemId",
          "type": "uint256"
        }
      ],
      "name": "purchaseItem",
      "outputs": [],
      "stateMutability": "payable",
      "type": "function"
    },
    {
      "inputs": [],
      "name": "tradeCount",
      "outputs": [
        {
          "internalType": "uint256",
          "name": "",
          "type": "uint256"
        }
      ],
      "stateMutability": "view",
      "type": "function"
    },
    {
      "inputs": [
        {
          "internalType": "uint256",
          "name": "",
          "type": "uint256"
        }
      ],
      "name": "trades",
      "outputs": [
        {
          "internalType": "uint256",
          "name": "tradeId",
          "type": "uint256"
        },
        {
          "internalType": "uint256",
          "name": "itemId1",
          "type": "uint256"
        },
        {
          "internalType": "uint256",
          "name": "itemId2",
          "type": "uint256"
        },
        {
          "internalType": "address",
          "name": "participant1",
          "type": "address"
        },
        {
          "internalType": "address",
          "name": "participant2",
          "type": "address"
        }
      ],
      "stateMutability": "view",
      "type": "function"
    }
  ],
  "bytecode": "0x60c06040523480156200001157600080fd5b50604051620047cd380380620047cd83398181016040528101906200003791906200009c565b60016000819055503373ffffffffffffffffffffffffffffffffffffffff1660808173ffffffffffffffffffffffffffffffffffffffff1660601b815250508060a0818152505050620000ec565b6000815190506200009681620000d2565b92915050565b600060208284031215620000af57600080fd5b6000620000bf8482850162000085565b91505092915050565b6000819050919050565b620000dd81620000c8565b8114620000e957600080fd5b50565b60805160601c60a0516146aa6200012360003960008181610938015261176701526000818161090e01526123d201526146aa6000f3fe6080604052600436106100fe5760003560e01c8063abe4d12211610095578063ca7dd37511610064578063ca7dd3751461032b578063cbeb9b9b14610368578063cda4beef14610391578063d38ea5bf146103ba578063fa00afc7146103d6576100fe565b8063abe4d12214610276578063b9a2de3a1461029f578063bd55022a146102bb578063bfb231d2146102e6576100fe565b806365e17c9d116100d157806365e17c9d146101cc5780636bfb0d01146101f75780637fd6f15c14610222578063883efa671461024d576100fe565b806301663e59146101035780631e6c598e1461012c578063454a2ab31461016d578063571a26a014610189575b600080fd5b34801561010f57600080fd5b5061012a6004803603810190610125919061303c565b6103ff565b005b34801561013857600080fd5b50610153600480360381019061014e919061303c565b61058b565b604051610164959493929190613c0b565b60405180910390f35b6101876004803603810190610182919061303c565b610601565b005b34801561019557600080fd5b506101b060048036038101906101ab919061303c565b61087d565b6040516101c39796959493929190613b9c565b60405180910390f35b3480156101d857600080fd5b506101e161090c565b6040516101ee9190613640565b60405180910390f35b34801561020357600080fd5b5061020c610930565b6040516102199190613a6b565b60405180910390f35b34801561022e57600080fd5b50610237610936565b6040516102449190613a6b565b60405180910390f35b34801561025957600080fd5b50610274600480360381019061026f9190613065565b61095a565b005b34801561028257600080fd5b5061029d6004803603810190610298919061303c565b610dd3565b005b6102b960048036038101906102b4919061303c565b611080565b005b3480156102c757600080fd5b506102d0611686565b6040516102dd9190613a6b565b60405180910390f35b3480156102f257600080fd5b5061030d6004803603810190610308919061303c565b61168c565b60405161032299989796959493929190613aaf565b60405180910390f35b34801561033757600080fd5b50610352600480360381019061034d919061303c565b611761565b60405161035f9190613a6b565b60405180910390f35b34801561037457600080fd5b5061038f600480360381019061038a9190613065565b6117c4565b005b34801561039d57600080fd5b506103b860048036038101906103b391906130a1565b611c81565b005b6103d460048036038101906103cf919061303c565b612177565b005b3480156103e257600080fd5b506103fd60048036038101906103f89190612fed565b612654565b005b60026000541415610445576040517f08c379a000000000000000000000000000000000000000000000000000000000815260040161043c906139eb565b60405180910390fd5b6002600081905550600060056000838152602001908152602001600020905060008160000154116104ab576040517f08c379a00000000000000000000000000000000000000000000000000000000081526004016104a29061398b565b60405180910390fd5b8060030160009054906101000a900473ffffffffffffffffffffffffffffffffffffffff1673ffffffffffffffffffffffffffffffffffffffff163373ffffffffffffffffffffffffffffffffffffffff161461053d576040517f08c379a0000000000000000000000000000000000000000000000000000000008152600401610534906136eb565b60405180910390fd5b7f642ea0b1d63cc70f38e39719b589ae0a9a111ef74ae825093d1574009bdf4e29823360405161056e929190613a86565b60405180910390a161057f82612986565b50600160008190555050565b60056020528060005260406000206000915090508060000154908060010154908060020154908060030160009054906101000a900473ffffffffffffffffffffffffffffffffffffffff16908060040160009054906101000a900473ffffffffffffffffffffffffffffffffffffffff16905085565b60026000541415610647576040517f08c379a000000000000000000000000000000000000000000000000000000000815260040161063e906139eb565b60405180910390fd5b60026000819055506000600460008381526020019081526020016000209050806004015442106106ac576040517f08c379a00000000000000000000000000000000000000000000000000000000081526004016106a3906137ab565b60405180910390fd5b806001015434116106f2576040517f08c379a00000000000000000000000000000000000000000000000000000000081526004016106e9906138eb565b60405180910390fd5b6000816002015411156107d55760008160030160009054906101000a900473ffffffffffffffffffffffffffffffffffffffff1673ffffffffffffffffffffffffffffffffffffffff16826002015460405161074d9061362b565b60006040518083038185875af1925050503d806000811461078a576040519150601f19603f3d011682016040523d82523d6000602084013e61078f565b606091505b50509050806107d3576040517f08c379a00000000000000000000000000000000000000000000000000000000081526004016107ca9061380b565b60405180910390fd5b505b3373ffffffffffffffffffffffffffffffffffffffff167fbfbf2db1f7880e9487cbceeb181c4dce363d0ad1b6e73f5aa494ffb5d9191496833460405161081d929190613b3c565b60405180910390a2348160020181905550338160030160006101000a81548173ffffffffffffffffffffffffffffffffffffffff021916908373ffffffffffffffffffffffffffffffffffffffff16021790555050600160008190555050565b60046020528060005260406000206000915090508060000154908060010154908060020154908060030160009054906101000a900473ffffffffffffffffffffffffffffffffffffffff16908060040154908060050160009054906101000a900460ff16908060050160019054906101000a900473ffffffffffffffffffffffffffffffffffffffff16905087565b7f000000000000000000000000000000000000000000000000000000000000000081565b60015481565b7f000000000000000000000000000000000000000000000000000000000000000081565b600260005414156109a0576040517f08c379a0000000000000000000000000000000000000000000000000000000008152600401610997906139eb565b60405180910390fd5b600260008190555060006003600084815260200190815260200160002090506000831180156109d157506001548311155b610a10576040517f08c379a0000000000000000000000000000000000000000000000000000000008152600401610a079061388b565b60405180910390fd5b8060050160009054906101000a900473ffffffffffffffffffffffffffffffffffffffff1673ffffffffffffffffffffffffffffffffffffffff163373ffffffffffffffffffffffffffffffffffffffff1614610aa2576040517f08c379a0000000000000000000000000000000000000000000000000000000008152600401610a999061370b565b60405180910390fd5b60008211610ae5576040517f08c379a0000000000000000000000000000000000000000000000000000000008152600401610adc9061372b565b60405180910390fd5b8060050160169054906101000a900460ff1615610b37576040517f08c379a0000000000000000000000000000000000000000000000000000000008152600401610b2e906138ab565b60405180910390fd5b8060050160159054906101000a900460ff1615610b89576040517f08c379a0000000000000000000000000000000000000000000000000000000008152600401610b809061384b565b60405180910390fd5b8060050160149054906101000a900460ff1615610bdb576040517f08c379a0000000000000000000000000000000000000000000000000000000008152600401610bd2906138cb565b60405180910390fd5b8060010160009054906101000a900473ffffffffffffffffffffffffffffffffffffffff1673ffffffffffffffffffffffffffffffffffffffff166323b872dd333084600201546040518463ffffffff1660e01b8152600401610c4093929190613692565b600060405180830381600087803b158015610c5a57600080fd5b505af1158015610c6e573d6000803e3d6000fd5b50505050818160030181905550338160040160006101000a81548173ffffffffffffffffffffffffffffffffffffffff021916908373ffffffffffffffffffffffffffffffffffffffff16021790555060018160050160146101000a81548160ff021916908315150217905550338160050160006101000a81548173ffffffffffffffffffffffffffffffffffffffff021916908373ffffffffffffffffffffffffffffffffffffffff1602179055503373ffffffffffffffffffffffffffffffffffffffff163373ffffffffffffffffffffffffffffffffffffffff168260010160009054906101000a900473ffffffffffffffffffffffffffffffffffffffff1673ffffffffffffffffffffffffffffffffffffffff167fe4ef384ea82c018889dc208d54c1dfda9f0e81eaec76e042966cb59d46fd8d2986856002015487604051610dbe93929190613b65565b60405180910390a45060016000819055505050565b60026000541415610e19576040517f08c379a0000000000000000000000000000000000000000000000000000000008152600401610e10906139eb565b60405180910390fd5b600260008190555060006003600083815260200190815260200160002090503373ffffffffffffffffffffffffffffffffffffffff168160050160009054906101000a900473ffffffffffffffffffffffffffffffffffffffff1673ffffffffffffffffffffffffffffffffffffffff1614610eca576040517f08c379a0000000000000000000000000000000000000000000000000000000008152600401610ec19061376b565b60405180910390fd5b8060050160169054906101000a900460ff1615610f1c576040517f08c379a0000000000000000000000000000000000000000000000000000000008152600401610f1390613a0b565b60405180910390fd5b8060050160159054906101000a900460ff1615610f6e576040517f08c379a0000000000000000000000000000000000000000000000000000000008152600401610f659061384b565b60405180910390fd5b8060050160149054906101000a900460ff1615610fc0576040517f08c379a0000000000000000000000000000000000000000000000000000000008152600401610fb79061390b565b60405180910390fd5b60018160050160166101000a81548160ff0219169083151502179055508060010160009054906101000a900473ffffffffffffffffffffffffffffffffffffffff1673ffffffffffffffffffffffffffffffffffffffff166323b872dd333084600201546040518463ffffffff1660e01b815260040161104293929190613692565b600060405180830381600087803b15801561105c57600080fd5b505af1158015611070573d6000803e3d6000fd5b5050505050600160008190555050565b600260005414156110c6576040517f08c379a00000000000000000000000000000000000000000000000000000000081526004016110bd906139eb565b60405180910390fd5b6002600081905550600060046000838152602001908152602001600020905060006003600084815260200190815260200160002090508160040154421015611143576040517f08c379a000000000000000000000000000000000000000000000000000000000815260040161113a9061392b565b60405180910390fd5b8160050160009054906101000a900460ff1615611195576040517f08c379a000000000000000000000000000000000000000000000000000000000815260040161118c9061382b565b60405180910390fd5b60018260050160006101000a81548160ff0219169083151502179055506000826002015411156115bd5781600201544710156111d047612e16565b6111dd8460020154612e16565b6040516020016111ee9291906135f1565b6040516020818303038152906040529061123e576040517f08c379a000000000000000000000000000000000000000000000000000000000815260040161123591906136c9565b60405180910390fd5b508160050160019054906101000a900473ffffffffffffffffffffffffffffffffffffffff1673ffffffffffffffffffffffffffffffffffffffff166108fc83600201549081150290604051600060405180830381858888f193505050501580156112ad573d6000803e3d6000fd5b50600073ffffffffffffffffffffffffffffffffffffffff168260030160009054906101000a900473ffffffffffffffffffffffffffffffffffffffff1673ffffffffffffffffffffffffffffffffffffffff1614611484578060010160009054906101000a900473ffffffffffffffffffffffffffffffffffffffff1673ffffffffffffffffffffffffffffffffffffffff166323b872dd308460030160009054906101000a900473ffffffffffffffffffffffffffffffffffffffff1684600201546040518463ffffffff1660e01b815260040161138f9392919061365b565b600060405180830381600087803b1580156113a957600080fd5b505af11580156113bd573d6000803e3d6000fd5b5050505060008160050160146101000a81548160ff02191690831515021790555060008160050160156101000a81548160ff02191690831515021790555060008160050160166101000a81548160ff0219169083151502179055508160030160009054906101000a900473ffffffffffffffffffffffffffffffffffffffff168160050160006101000a81548173ffffffffffffffffffffffffffffffffffffffff021916908373ffffffffffffffffffffffffffffffffffffffff160217905550611540565b8060010160009054906101000a900473ffffffffffffffffffffffffffffffffffffffff1673ffffffffffffffffffffffffffffffffffffffff166323b872dd308460050160019054906101000a900473ffffffffffffffffffffffffffffffffffffffff1684600201546040518463ffffffff1660e01b815260040161150d9392919061365b565b600060405180830381600087803b15801561152757600080fd5b505af115801561153b573d6000803e3d6000fd5b505050505b8160030160009054906101000a900473ffffffffffffffffffffffffffffffffffffffff1673ffffffffffffffffffffffffffffffffffffffff167fbafc4bda865d4d1f8d5b16f883e996fde0fe71112fac81503876d353756944008484600201546040516115b0929190613b3c565b60405180910390a2611679565b8060010160009054906101000a900473ffffffffffffffffffffffffffffffffffffffff1673ffffffffffffffffffffffffffffffffffffffff166323b872dd308460050160019054906101000a900473ffffffffffffffffffffffffffffffffffffffff1684600201546040518463ffffffff1660e01b81526004016116469392919061365b565b600060405180830381600087803b15801561166057600080fd5b505af1158015611674573d6000803e3d6000fd5b505050505b5050600160008190555050565b60025481565b60036020528060005260406000206000915090508060000154908060010160009054906101000a900473ffffffffffffffffffffffffffffffffffffffff16908060020154908060030154908060040160009054906101000a900473ffffffffffffffffffffffffffffffffffffffff16908060050160009054906101000a900473ffffffffffffffffffffffffffffffffffffffff16908060050160149054906101000a900460ff16908060050160159054906101000a900460ff16908060050160169054906101000a900460ff16905089565b600060647f000000000000000000000000000000000000000000000000000000000000000060646117929190613c90565b60036000858152602001908152602001600020600301546117b39190613d17565b6117bd9190613ce6565b9050919050565b6002600054141561180a576040517f08c379a0000000000000000000000000000000000000000000000000000000008152600401611801906139eb565b60405180910390fd5b6002600081905550600060036000848152602001908152602001600020905060006003600084815260200190815260200160002090503373ffffffffffffffffffffffffffffffffffffffff168160050160009054906101000a900473ffffffffffffffffffffffffffffffffffffffff1673ffffffffffffffffffffffffffffffffffffffff16146118d2576040517f08c379a00000000000000000000000000000000000000000000000000000000081526004016118c99061376b565b60405180910390fd5b8060050160009054906101000a900473ffffffffffffffffffffffffffffffffffffffff1673ffffffffffffffffffffffffffffffffffffffff168260050160009054906101000a900473ffffffffffffffffffffffffffffffffffffffff1673ffffffffffffffffffffffffffffffffffffffff161415611989576040517f08c379a000000000000000000000000000000000000000000000000000000000815260040161198090613a2b565b60405180910390fd5b8160050160169054906101000a900460ff166119da576040517f08c379a00000000000000000000000000000000000000000000000000000000081526004016119d19061394b565b60405180910390fd5b600260008154809291906119ed90613e9e565b91905055506040518060a0016040528060025481526020018581526020018481526020018360050160009054906101000a900473ffffffffffffffffffffffffffffffffffffffff1673ffffffffffffffffffffffffffffffffffffffff1681526020018260050160009054906101000a900473ffffffffffffffffffffffffffffffffffffffff1673ffffffffffffffffffffffffffffffffffffffff1681525060056000600254815260200190815260200160002060008201518160000155602082015181600101556040820151816002015560608201518160030160006101000a81548173ffffffffffffffffffffffffffffffffffffffff021916908373ffffffffffffffffffffffffffffffffffffffff16021790555060808201518160040160006101000a81548173ffffffffffffffffffffffffffffffffffffffff021916908373ffffffffffffffffffffffffffffffffffffffff1602179055509050508060010160009054906101000a900473ffffffffffffffffffffffffffffffffffffffff1673ffffffffffffffffffffffffffffffffffffffff166323b872dd333084600201546040518463ffffffff1660e01b8152600401611bb893929190613692565b600060405180830381600087803b158015611bd257600080fd5b505af1158015611be6573d6000803e3d6000fd5b505050507f4e159664e78f45643c1c9a11403b435b65662a5941f60a7e8aad4d047864020560025485858560050160009054906101000a900473ffffffffffffffffffffffffffffffffffffffff168560050160009054906101000a900473ffffffffffffffffffffffffffffffffffffffff16604051611c6b959493929190613c0b565b60405180910390a1505060016000819055505050565b60026000541415611cc7576040517f08c379a0000000000000000000000000000000000000000000000000000000008152600401611cbe906139eb565b60405180910390fd5b60026000819055506000600360008581526020019081526020016000209050600084118015611cf857506001548411155b611d37576040517f08c379a0000000000000000000000000000000000000000000000000000000008152600401611d2e906137cb565b60405180910390fd5b8060050160009054906101000a900473ffffffffffffffffffffffffffffffffffffffff1673ffffffffffffffffffffffffffffffffffffffff163373ffffffffffffffffffffffffffffffffffffffff1614611dc9576040517f08c379a0000000000000000000000000000000000000000000000000000000008152600401611dc09061374b565b60405180910390fd5b8060050160159054906101000a900460ff1615611e1b576040517f08c379a0000000000000000000000000000000000000000000000000000000008152600401611e129061378b565b60405180910390fd5b8060050160149054906101000a900460ff1615611e6d576040517f08c379a0000000000000000000000000000000000000000000000000000000008152600401611e64906139cb565b60405180910390fd5b8060050160169054906101000a900460ff1615611ebf576040517f08c379a0000000000000000000000000000000000000000000000000000000008152600401611eb6906137eb565b60405180910390fd5b60008311611f02576040517f08c379a0000000000000000000000000000000000000000000000000000000008152600401611ef990613a4b565b60405180910390fd5b8060010160009054906101000a900473ffffffffffffffffffffffffffffffffffffffff1673ffffffffffffffffffffffffffffffffffffffff166323b872dd333084600201546040518463ffffffff1660e01b8152600401611f6793929190613692565b600060405180830381600087803b158015611f8157600080fd5b505af1158015611f95573d6000803e3d6000fd5b5050505060018160050160156101000a81548160ff02191690831515021790555060008242611fc49190613c90565b90506040518060e0016040528086815260200185815260200160008152602001600073ffffffffffffffffffffffffffffffffffffffff1681526020018281526020016000151581526020013373ffffffffffffffffffffffffffffffffffffffff168152506004600087815260200190815260200160002060008201518160000155602082015181600101556040820151816002015560608201518160030160006101000a81548173ffffffffffffffffffffffffffffffffffffffff021916908373ffffffffffffffffffffffffffffffffffffffff1602179055506080820151816004015560a08201518160050160006101000a81548160ff02191690831515021790555060c08201518160050160016101000a81548173ffffffffffffffffffffffffffffffffffffffff021916908373ffffffffffffffffffffffffffffffffffffffff1602179055509050503373ffffffffffffffffffffffffffffffffffffffff167f31601d099683117d912ba8d2e0a9265379e3e1325353b6effa37c6ef86a9cb0386868460405161216093929190613b65565b60405180910390a250506001600081905550505050565b600260005414156121bd576040517f08c379a00000000000000000000000000000000000000000000000000000000081526004016121b4906139eb565b60405180910390fd5b600260008190555060006121d082611761565b905060006003600084815260200190815260200160002090506000831180156121fb57506001548311155b61223a576040517f08c379a00000000000000000000000000000000000000000000000000000000081526004016122319061388b565b60405180910390fd5b8134101561227d576040517f08c379a00000000000000000000000000000000000000000000000000000000081526004016122749061386b565b60405180910390fd5b8060050160149054906101000a900460ff166122ce576040517f08c379a00000000000000000000000000000000000000000000000000000000081526004016122c59061396b565b60405180910390fd5b3373ffffffffffffffffffffffffffffffffffffffff168160050160009054906101000a900473ffffffffffffffffffffffffffffffffffffffff1673ffffffffffffffffffffffffffffffffffffffff161415612361576040517f08c379a0000000000000000000000000000000000000000000000000000000008152600401612358906139ab565b60405180910390fd5b8060040160009054906101000a900473ffffffffffffffffffffffffffffffffffffffff1673ffffffffffffffffffffffffffffffffffffffff166108fc82600301549081150290604051600060405180830381858888f193505050501580156123cf573d6000803e3d6000fd5b507f000000000000000000000000000000000000000000000000000000000000000073ffffffffffffffffffffffffffffffffffffffff166108fc82600301548461241a9190613d71565b9081150290604051600060405180830381858888f19350505050158015612445573d6000803e3d6000fd5b5060008160050160146101000a81548160ff02191690831515021790555060008160050160156101000a81548160ff02191690831515021790555060008160050160166101000a81548160ff021916908315150217905550338160050160006101000a81548173ffffffffffffffffffffffffffffffffffffffff021916908373ffffffffffffffffffffffffffffffffffffffff1602179055508060010160009054906101000a900473ffffffffffffffffffffffffffffffffffffffff1673ffffffffffffffffffffffffffffffffffffffff166323b872dd303384600201546040518463ffffffff1660e01b815260040161254593929190613692565b600060405180830381600087803b15801561255f57600080fd5b505af1158015612573573d6000803e3d6000fd5b505050503373ffffffffffffffffffffffffffffffffffffffff168160040160009054906101000a900473ffffffffffffffffffffffffffffffffffffffff1673ffffffffffffffffffffffffffffffffffffffff168260010160009054906101000a900473ffffffffffffffffffffffffffffffffffffffff1673ffffffffffffffffffffffffffffffffffffffff167f8b4c9c8a607d67b321582dd8461041b1dc2ceeca70c8b7f37f8e02095cf2e76d868560020154866003015460405161263f93929190613b65565b60405180910390a45050600160008190555050565b6002600054141561269a576040517f08c379a0000000000000000000000000000000000000000000000000000000008152600401612691906139eb565b60405180910390fd5b6002600081905550600081116126e5576040517f08c379a00000000000000000000000000000000000000000000000000000000081526004016126dc9061372b565b60405180910390fd5b600160008154809291906126f890613e9e565b919050555060405180610120016040528060015481526020018473ffffffffffffffffffffffffffffffffffffffff168152602001838152602001828152602001600073ffffffffffffffffffffffffffffffffffffffff1681526020013373ffffffffffffffffffffffffffffffffffffffff168152602001600015158152602001600015158152602001600015158152506003600060015481526020019081526020016000206000820151816000015560208201518160010160006101000a81548173ffffffffffffffffffffffffffffffffffffffff021916908373ffffffffffffffffffffffffffffffffffffffff160217905550604082015181600201556060820151816003015560808201518160040160006101000a81548173ffffffffffffffffffffffffffffffffffffffff021916908373ffffffffffffffffffffffffffffffffffffffff16021790555060a08201518160050160006101000a81548173ffffffffffffffffffffffffffffffffffffffff021916908373ffffffffffffffffffffffffffffffffffffffff16021790555060c08201518160050160146101000a81548160ff02191690831515021790555060e08201518160050160156101000a81548160ff0219169083151502179055506101008201518160050160166101000a81548160ff0219169083151502179055509050503373ffffffffffffffffffffffffffffffffffffffff163373ffffffffffffffffffffffffffffffffffffffff168473ffffffffffffffffffffffffffffffffffffffff167fe4ef384ea82c018889dc208d54c1dfda9f0e81eaec76e042966cb59d46fd8d29600154868660405161297193929190613b65565b60405180910390a46001600081905550505050565b600060056000838152602001908152602001600020905060006003600083600101548152602001908152602001600020905060006003600084600201548152602001908152602001600020905060008260050160009054906101000a900473ffffffffffffffffffffffffffffffffffffffff1690508160050160009054906101000a900473ffffffffffffffffffffffffffffffffffffffff168360050160006101000a81548173ffffffffffffffffffffffffffffffffffffffff021916908373ffffffffffffffffffffffffffffffffffffffff160217905550808260050160006101000a81548173ffffffffffffffffffffffffffffffffffffffff021916908373ffffffffffffffffffffffffffffffffffffffff1602179055508260010160009054906101000a900473ffffffffffffffffffffffffffffffffffffffff1673ffffffffffffffffffffffffffffffffffffffff166323b872dd308560050160009054906101000a900473ffffffffffffffffffffffffffffffffffffffff1686600201546040518463ffffffff1660e01b8152600401612b2f93929190613692565b600060405180830381600087803b158015612b4957600080fd5b505af1158015612b5d573d6000803e3d6000fd5b505050508160010160009054906101000a900473ffffffffffffffffffffffffffffffffffffffff1673ffffffffffffffffffffffffffffffffffffffff166323b872dd308460050160009054906101000a900473ffffffffffffffffffffffffffffffffffffffff1685600201546040518463ffffffff1660e01b8152600401612bea93929190613692565b600060405180830381600087803b158015612c0457600080fd5b505af1158015612c18573d6000803e3d6000fd5b5050505060018360050160146101000a81548160ff02191690831515021790555060018260050160146101000a81548160ff0219169083151502179055507fb3eab9b33fc1685c35f588131441eb34e4ecf693d86667f6c91c0f57e4bf41bd85856001015486600201548760030160009054906101000a900473ffffffffffffffffffffffffffffffffffffffff168860040160009054906101000a900473ffffffffffffffffffffffffffffffffffffffff16604051612cdd959493929190613c0b565b60405180910390a160008360050160146101000a81548160ff02191690831515021790555060008360050160156101000a81548160ff02191690831515021790555060008360050160166101000a81548160ff02191690831515021790555060008260050160146101000a81548160ff02191690831515021790555060008260050160156101000a81548160ff02191690831515021790555060008260050160166101000a81548160ff02191690831515021790555060056000868152602001908152602001600020600080820160009055600182016000905560028201600090556003820160006101000a81549073ffffffffffffffffffffffffffffffffffffffff02191690556004820160006101000a81549073ffffffffffffffffffffffffffffffffffffffff021916905550505050505050565b60606000821415612e5e576040518060400160405280600181526020017f30000000000000000000000000000000000000000000000000000000000000008152509050612fbe565b600082905060005b60008214612e90578080612e7990613e9e565b915050600a82612e899190613ce6565b9150612e66565b60008167ffffffffffffffff811115612ed2577f4e487b7100000000000000000000000000000000000000000000000000000000600052604160045260246000fd5b6040519080825280601f01601f191660200182016040528015612f045781602001600182028036833780820191505090505b5090505b60008514612fb757600182612f1d9190613d71565b9150600a85612f2c9190613ee7565b6030612f389190613c90565b60f81b818381518110612f74577f4e487b7100000000000000000000000000000000000000000000000000000000600052603260045260246000fd5b60200101907effffffffffffffffffffffffffffffffffffffffffffffffffffffffffffff1916908160001a905350600a85612fb09190613ce6565b9450612f08565b8093505050505b919050565b600081359050612fd281614646565b92915050565b600081359050612fe78161465d565b92915050565b60008060006060848603121561300257600080fd5b600061301086828701612fc3565b935050602061302186828701612fd8565b925050604061303286828701612fd8565b9150509250925092565b60006020828403121561304e57600080fd5b600061305c84828501612fd8565b91505092915050565b6000806040838503121561307857600080fd5b600061308685828601612fd8565b925050602061309785828601612fd8565b9150509250929050565b6000806000606084860312156130b657600080fd5b60006130c486828701612fd8565b93505060206130d586828701612fd8565b92505060406130e686828701612fd8565b9150509250925092565b6130f981613e11565b82525050565b61310881613db7565b82525050565b61311781613da5565b82525050565b61312681613dc9565b82525050565b61313581613e23565b82525050565b600061314682613c5e565b6131508185613c74565b9350613160818560208601613e6b565b61316981613f76565b840191505092915050565b600061317f82613c5e565b6131898185613c85565b9350613199818560208601613e6b565b80840191505092915050565b60006131b2600983613c85565b91506131bd82613f87565b600982019050919050565b60006131d5601e83613c85565b91506131e082613fb0565b601e82019050919050565b60006131f8602383613c74565b915061320382613fd9565b604082019050919050565b600061321b602a83613c74565b915061322682614028565b604082019050919050565b600061323e601f83613c74565b915061324982614077565b602082019050919050565b6000613261602483613c74565b915061326c826140a0565b604082019050919050565b6000613284602883613c74565b915061328f826140ef565b604082019050919050565b60006132a7601f83613c74565b91506132b28261413e565b602082019050919050565b60006132ca600d83613c74565b91506132d582614167565b602082019050919050565b60006132ed601283613c74565b91506132f882614190565b602082019050919050565b6000613310601d83613c74565b915061331b826141b9565b602082019050919050565b6000613333602883613c74565b915061333e826141e2565b604082019050919050565b6000613356601583613c74565b915061336182614231565b602082019050919050565b6000613379602383613c74565b91506133848261425a565b604082019050919050565b600061339c603383613c74565b91506133a7826142a9565b604082019050919050565b60006133bf601283613c74565b91506133ca826142f8565b602082019050919050565b60006133e2602183613c74565b91506133ed82614321565b604082019050919050565b6000613405602883613c74565b915061341082614370565b604082019050919050565b6000613428602b83613c74565b9150613433826143bf565b604082019050919050565b600061344b602083613c74565b91506134568261440e565b602082019050919050565b600061346e601583613c74565b915061347982614437565b602082019050919050565b6000613491602083613c74565b915061349c82614460565b602082019050919050565b60006134b4600083613c69565b91506134bf82614489565b600082019050919050565b60006134d7601983613c74565b91506134e28261448c565b602082019050919050565b60006134fa601483613c74565b9150613505826144b5565b602082019050919050565b600061351d601e83613c74565b9150613528826144de565b602082019050919050565b6000613540601c83613c74565b915061354b82614507565b602082019050919050565b6000613563601f83613c74565b915061356e82614530565b602082019050919050565b6000613586602983613c74565b915061359182614559565b604082019050919050565b60006135a9603883613c74565b91506135b4826145a8565b604082019050919050565b60006135cc602883613c74565b91506135d7826145f7565b604082019050919050565b6135eb81613e07565b82525050565b60006135fc826131c8565b91506136088285613174565b9150613613826131a5565b915061361f8284613174565b91508190509392505050565b6000613636826134a7565b9150819050919050565b600060208201905061365560008301846130ff565b92915050565b6000606082019050613670600083018661310e565b61367d60208301856130f0565b61368a60408301846135e2565b949350505050565b60006060820190506136a7600083018661310e565b6136b4602083018561310e565b6136c160408301846135e2565b949350505050565b600060208201905081810360008301526136e3818461313b565b905092915050565b60006020820190508181036000830152613704816131eb565b9050919050565b600060208201905081810360008301526137248161320e565b9050919050565b6000602082019050818103600083015261374481613231565b9050919050565b6000602082019050818103600083015261376481613254565b9050919050565b6000602082019050818103600083015261378481613277565b9050919050565b600060208201905081810360008301526137a48161329a565b9050919050565b600060208201905081810360008301526137c4816132bd565b9050919050565b600060208201905081810360008301526137e4816132e0565b9050919050565b6000602082019050818103600083015261380481613303565b9050919050565b6000602082019050818103600083015261382481613326565b9050919050565b6000602082019050818103600083015261384481613349565b9050919050565b600060208201905081810360008301526138648161336c565b9050919050565b600060208201905081810360008301526138848161338f565b9050919050565b600060208201905081810360008301526138a4816133b2565b9050919050565b600060208201905081810360008301526138c4816133d5565b9050919050565b600060208201905081810360008301526138e4816133f8565b9050919050565b600060208201905081810360008301526139048161341b565b9050919050565b600060208201905081810360008301526139248161343e565b9050919050565b6000602082019050818103600083015261394481613461565b9050919050565b6000602082019050818103600083015261396481613484565b9050919050565b60006020820190508181036000830152613984816134ca565b9050919050565b600060208201905081810360008301526139a4816134ed565b9050919050565b600060208201905081810360008301526139c481613510565b9050919050565b600060208201905081810360008301526139e481613533565b9050919050565b60006020820190508181036000830152613a0481613556565b9050919050565b60006020820190508181036000830152613a2481613579565b9050919050565b60006020820190508181036000830152613a448161359c565b9050919050565b60006020820190508181036000830152613a64816135bf565b9050919050565b6000602082019050613a8060008301846135e2565b92915050565b6000604082019050613a9b60008301856135e2565b613aa8602083018461310e565b9392505050565b600061012082019050613ac5600083018c6135e2565b613ad2602083018b61312c565b613adf604083018a6135e2565b613aec60608301896135e2565b613af960808301886130ff565b613b0660a083018761310e565b613b1360c083018661311d565b613b2060e083018561311d565b613b2e61010083018461311d565b9a9950505050505050505050565b6000604082019050613b5160008301856135e2565b613b5e60208301846135e2565b9392505050565b6000606082019050613b7a60008301866135e2565b613b8760208301856135e2565b613b9460408301846135e2565b949350505050565b600060e082019050613bb1600083018a6135e2565b613bbe60208301896135e2565b613bcb60408301886135e2565b613bd860608301876130ff565b613be560808301866135e2565b613bf260a083018561311d565b613bff60c08301846130ff565b98975050505050505050565b600060a082019050613c2060008301886135e2565b613c2d60208301876135e2565b613c3a60408301866135e2565b613c47606083018561310e565b613c54608083018461310e565b9695505050505050565b600081519050919050565b600081905092915050565b600082825260208201905092915050565b600081905092915050565b6000613c9b82613e07565b9150613ca683613e07565b9250827fffffffffffffffffffffffffffffffffffffffffffffffffffffffffffffffff03821115613cdb57613cda613f18565b5b828201905092915050565b6000613cf182613e07565b9150613cfc83613e07565b925082613d0c57613d0b613f47565b5b828204905092915050565b6000613d2282613e07565b9150613d2d83613e07565b9250817fffffffffffffffffffffffffffffffffffffffffffffffffffffffffffffffff0483118215151615613d6657613d65613f18565b5b828202905092915050565b6000613d7c82613e07565b9150613d8783613e07565b925082821015613d9a57613d99613f18565b5b828203905092915050565b6000613db082613de7565b9050919050565b6000613dc282613de7565b9050919050565b60008115159050919050565b6000613de082613da5565b9050919050565b600073ffffffffffffffffffffffffffffffffffffffff82169050919050565b6000819050919050565b6000613e1c82613e47565b9050919050565b6000613e2e82613e35565b9050919050565b6000613e4082613de7565b9050919050565b6000613e5282613e59565b9050919050565b6000613e6482613de7565b9050919050565b60005b83811015613e89578082015181840152602081019050613e6e565b83811115613e98576000848401525b50505050565b6000613ea982613e07565b91507fffffffffffffffffffffffffffffffffffffffffffffffffffffffffffffffff821415613edc57613edb613f18565b5b600182019050919050565b6000613ef282613e07565b9150613efd83613e07565b925082613f0d57613f0c613f47565b5b828206905092915050565b7f4e487b7100000000000000000000000000000000000000000000000000000000600052601160045260246000fd5b7f4e487b7100000000000000000000000000000000000000000000000000000000600052601260045260246000fd5b6000601f19601f8301169050919050565b7f2c206e6565646564200000000000000000000000000000000000000000000000600082015250565b7f496e73756666696369656e7420636f6e74726163742062616c616e6365200000600082015250565b7f596f7520617265206e6f7420746865206f776e6572206f66207468697320747260008201527f6164650000000000000000000000000000000000000000000000000000000000602082015250565b7f4f6e6c79207468652063757272656e74206f776e65722063616e2072656c697360008201527f7420746865206974656d00000000000000000000000000000000000000000000602082015250565b7f5072696365206d7573742062652067726561746572207468616e207a65726f00600082015250565b7f6f6e6c7920746865206f776e65722063616e2063726561746520616e2061756360008201527f74696f6e00000000000000000000000000000000000000000000000000000000602082015250565b7f596f75206d757374206f776e20746865206974656d20746f2070726f706f736560008201527f2061207472616465000000000000000000000000000000000000000000000000602082015250565b7f6974656d20616c7265616479206c697374656420666f722061756374696f6e00600082015250565b7f61756374696f6e20656e64656400000000000000000000000000000000000000600082015250565b7f6974656d20646f65736e27742065786973740000000000000000000000000000600082015250565b7f6974656d20616c7265616479206c697374656420666f72207472616465000000600082015250565b7f526566756e6420746f2070726576696f7573206869676865737420626964646560008201527f72206661696c6564000000000000000000000000000000000000000000000000602082015250565b7f61756374696f6e20616c726561647920656e6465640000000000000000000000600082015250565b7f4974656d206d757374206e6f74206265206c697374656420666f72206175637460008201527f696f6e0000000000000000000000000000000000000000000000000000000000602082015250565b7f4e6f7420656e6f75676820657468657220746f20636f766572206974656d207060008201527f7269636520616e64206d61726b65742066656500000000000000000000000000602082015250565b7f4974656d20646f65736e27742065786973740000000000000000000000000000600082015250565b7f4974656d206d757374206e6f74206265206c697374656420666f72207472616460008201527f6500000000000000000000000000000000000000000000000000000000000000602082015250565b7f4974656d206d757374206e6f7420626520616c7265616479206c69737465642060008201527f666f722073616c65000000000000000000000000000000000000000000000000602082015250565b7f626964206d75737420626520686967686572207468616e2063757272656e742060008201527f6869676865737420626964000000000000000000000000000000000000000000602082015250565b7f4974656d206d757374206e6f74206265206c697374656420666f722073616c65600082015250565b7f61756374696f6e206e6f742079657420656e6465640000000000000000000000600082015250565b7f4974656d206d75737420626520617661696c61626c6520666f72207472616465600082015250565b50565b7f4974656d206e6f74206c697374656420666f722073616c652e00000000000000600082015250565b7f547261646520646f6573206e6f74206578697374000000000000000000000000600082015250565b7f596f752061726520746865206f776e6572206f662074686973206974656d0000600082015250565b7f6974656d20616c7265616479206c697374656420666f722073616c6500000000600082015250565b7f5265656e7472616e637947756172643a207265656e7472616e742063616c6c00600082015250565b7f4974656d206d757374206e6f7420626520616c7265616479206c69737465642060008201527f666f722074726164650000000000000000000000000000000000000000000000602082015250565b7f596f75206d757374206e6f7420626520746865206f776e6572206f662074686560008201527f206974656d2070726f706f73656420666f722074726164650000000000000000602082015250565b7f5374617274696e67207072696365206d7573742062652067726561746572207460008201527f68616e207a65726f000000000000000000000000000000000000000000000000602082015250565b61464f81613dd5565b811461465a57600080fd5b50565b61466681613e07565b811461467157600080fd5b5056fea26469706673582212205de1044a8e15b387ac6358c49b14f35f98bd8c2bc3cbcabdb3c0cd85aae634b864736f6c63430008040033",
  "linkReferences": {},
  "deployedLinkReferences": {}
}